:020000040800F2
:1000000040060020550200088B28000883280008BD
:100010008728000855160008B92C000800000000C9
:100020000000000000000000000000008F28000811
:1000300059160008000000008D28000891280008CB
:1000400079020008790200087902000879020008A4
:100050007902000879020008790200087902000894
:100060007902000879020008790200087902000884
:100070007902000879020008790200087902000874
:100080007902000879020008790200087902000864
:100090007902000879020008790200087902000854
:1000A0007902000879020008790200087902000844
:1000B0007902000879020008790200087902000834
:1000C0007902000879020008790200087902000824
:1000D00079020008A92C00087902000879020008BA
:1000E0007902000879020008790200087902000804
:1000F00079020008790200087902000879020008F4
:1001000079020008790200087902000879020008E3
:1001100079020008790200087902000879020008D3
:1001200079020008790200087902000879020008C3
:1001300079020008790200087902000879020008B3
:1001400079020008790200087902000879020008A3
:100150007902000879020008790200087902000893
:100160007902000879020008790200087902000883
:1001700079020008790200087902000800000000F6
:10018000790200087902000800F002F800F052F845
:100190000AA090E8000C82448344AAF10107DA45E2
:1001A00001D100F047F8AFF2090EBAE80F0013F0E2
:1001B000010F18BFFB1A43F00103184744BF0000AA
:1001C00064BF0000103A24BF78C878C1FAD852073B
:1001D00024BF30C830C144BF04680C6070470000C1
:1001E0000023002400250026103A28BF78C1FBD840
:1001F000520728BF30C148BF0B607047662908F01E
:10020000F086642900F00E81782900F04781732977
:1002100000F00F85002070471FB508F0DDFE00F0EC
:100220001FFD04000020002108F088FBE0601FBDD6
:1002300010B510BD00F018FE1146FFF7EDFF07F0F6
:10024000E1FB00F036FE03B4FFF7F2FF03BC02F05F
:1002500070FD00000C48016841F4700101600B481A
:1002600080470B480047FEE7FEE7FEE7FEE7FEE7B4
:10027000FEE7FEE7FEE7FEE7FEE700000548064969
:10028000044A064B7047000088ED00E099280008FA
:1002900089010008400200204006002040020020A2
:1002A000704753EA020C00F069802DE9F04B4FF0E3
:1002B0000006002B1FBFB3FA83F503FA05F424FAF6
:1002C00005F65E4012BF1643B2FA82F502FA05F453
:1002D000C5F120051EBF22FA05FC44EA0C042035B6
:1002E00056EA044C4FEA144418BF641C4FF000084F
:1002F0004FF00009904271EB030C39D3002919BF6C
:10030000B1FA81F701FA07F6B0FA80F700FA07F6BA
:10031000C7F120071EBF20FA07FC46EA0C0620376B
:10032000B6FBF4FCA7EB0507103F07F01F0BCBF162
:1003300020060CFA0BFB2CFA06F644BFB346002647
:10034000202FA4BF5E464FF0000B5BEA060C08BFEF
:100350004FF0010B19EB0B09ABFB027C48EB0608D5
:10036000C01B06FB02CC0BFB03CC71EB0C01C1E7FD
:100370000B46024641464846BDE8F08B13B54FF0A8
:1003800000004FF00001AFF30080BDE81C40704753
:100390000FB4044910B503AA029800F04FFC10BC3A
:1003A0005DF814FB080000200FB41CB5074B06AA2B
:1003B0007B4469460090059800F011FC00206946D6
:1003C00000F020FC1CBC5DF814FB0000510800008C
:1003D00070B50C460546012A05D02878800600D560
:1003E000EA69002302E0012305E05B1C934202D28C
:1003F000E05C0028F9D1A869E618C01AA861286A4B
:10040000184428622846AFF3008004E0D5E90121B2
:1004100014F8010B9047B442F8D32846AFF300809C
:1004200070BD00002DE9F0410646002410687529D2
:10043000314616A510D0AFF30080002802DA404202
:1004400013A507E031688A0701D512A502E0490724
:1004500004D511A5012401E0AFF3008000210A2298
:1004600006F1240709E0B0FBF2FCB0FBF2F302FB5B
:100470001C00303078541846491C0028F3D123461C
:100480002A463046BDE8F04100F03CB900000000CB
:100490002D0000002B0000002000000070B5044675
:1004A0000D4621461068AFF300802188090502D56A
:1004B0000F4A7A4402E00E4A7A440E32002104F1D7
:1004C000240305E000F00F060009965D5E54491C08
:1004D0000028F7D120780023000704D5702D02D022
:1004E00009B1022311322046BDE8704000F00AB97C
:1004F000FEBA00002DE9F05F894604464FF0000A7D
:10050000DFF824B1FB44C0F820A02046E16888470A
:1005100000287DD0252806D0D4E901219047206A03
:10052000401C2062F1E700255F462046E1688847CD
:100530002028064607DB312E05D2B81910F8200C0A
:1005400008B10543F1E7A80701D525F00405C4F873
:100550001CA00027C4F818A02A2E09D0304602F0AB
:10056000E1FB38B304EB8708303EC8F8186019E0A7
:1005700059F8041B204604EB87029161E168884723
:10058000012F064618D1E069002820DA25F0200561
:100590001DE0D8F8180000EB800006EB4000303872
:1005A000C8F818002046E1688847064602F0BAFB02
:1005B0000028EED1012F0AD02E2E08D12046E16866
:1005C00088477F1C0646022F45F02005C4DBA06942
:1005D000002803DA404245F00105A061E80701D098
:1005E00025F01005A6B1A6F14100192802D8203641
:1005F00045F400654A463146204625604D46FFF7E2
:10060000FDFD60B1012807D0ED1D25F0070000E0D9
:1006100007E000F1080978E705F1040975E73046BD
:100620007AE7206ABDE8F09FD4BA00004FF00002DC
:1006300000B5134694469646203922BFA0E80C50D8
:10064000A0E80C50B1F12001BFF4F7AF090728BFB3
:10065000A0E80C5048BF0CC05DF804EB890028BF2F
:1006600040F8042B08BF704748BF20F8022B11F058
:10067000804F18BF00F8012B704700004FF0013C7D
:1006800050F8042B51F8043B9A4221D1A2EB0C0301
:10069000934313EACC1317D150F8042B51F8043BC1
:1006A0009A4215D1A2EB0C03934313EACC130BD15E
:1006B00050F8042B51F8043B9A4209D1A2EB0C03E9
:1006C000934313EACC13DBD04FF00000704700BF18
:1006D000D01A01BAB1FA81F101F0180122FA01F041
:1006E000CB40C1F12001DBB2C0B2C01A2CFA01F339
:1006F000D11A914311EAC311E6D170477047704790
:10070000704770472DE9F0470D46994692460446DA
:1007100000F124080168880604D5E06921F0100181
:10072000216000E00120A84201DD471B00E0002716
:10073000A1697A1902EB0900081AA0612078C006A5
:1007400002D42046AFF30080002608E0D4E901215E
:100750001AF806009047206A401C761C20624E451D
:10076000F4DB2078C0060AD52046AFF3008006E00F
:10077000D4E9012130209047206A401C2062381EB5
:10078000A7F10107F4DC07E0D4E9012118F805001E
:100790009047206A401C2062281EA5F10105F3DC69
:1007A0002046AFF300802078000602D50220BDE885
:1007B000F0870120FBE770472DE9FF4F0C461E46EE
:1007C0004FF0FF378BB0D2E90001DDF860800A906E
:1007D0008A46C1F30A5505B93D46002108464FF047
:1007E0000000BAF1000F00F4400005DA00EB8000D1
:1007F0004FF4400101EA50004FEA9059B9F1010F5E
:1008000000DDB9460A9850EA4A000ED044F610506E
:10081000A5F2FF3545432F14B8F1000F1ED07542E5
:10082000291E1EDDC9F100021CE0B8F1010F4FF0D6
:10083000000001D0302103E0F24305E02154401CC8
:10084000B042FBDB30460022002121540B99C1F855
:100850000880C1E900200FB0BDE8F08FBD1B6D1C02
:10086000DEE74A4600DA694206A800F083FA06ABE2
:1008700093E8070003AB83E8070050460A9900F0AD
:1008800021FB8DE80700A0F500501F380090039869
:10089000002D0ADD42F21F014A460844002303A945
:1008A0000390684600F08AFD09E0A0F500504A4632
:1008B0001F38002303A90390684600F094FD8DE8DB
:1008C00007000004000C03D04FF0FF30410800E0A7
:1008D0001046B8F1000F03D00022009215461EE02A
:1008E000751E05D400F0C0F9303262556D1EF9D581
:1008F000B3460122084302D000227F1C04E0207886
:10090000302801D100227F1E002A099784D01DE0E3
:10091000112D07DA00F0A8F9303262556D1C50EA4B
:100920000102F5D1084302D00098C8B10EE00021C1
:10093000681E05E0235C625C63542254401E491C1F
:100940008142F7DBAB46A81B401E0990002004F84B
:100950000B000B98099AC0F80880C0E9002B7AE7D1
:1009600011264FF0000857E72DE9F04F884604465E
:10097000D21D22F0070191B0D1E90001CDE90A01B1
:1009800002F09CF902460B98C00F01D02D2007E021
:100990002068810701D52B2002E0202101EAC00058
:1009A000032A099001D0072A05DB03464146204669
:1009B00000F0A0F90BE12078800601D5E06900E0A5
:1009C0000620B8F1650F814606D0B8F1660F18D041
:1009D000B8F1670F70D131E00020B9F1110F00902C
:1009E00001DB112301E009F101030AAA01A90CA806
:1009F000FFF7E2FEDDE90C70002609F101058346F0
:100A000047E001204B4600904FF000470AAA01A999
:100A10000CA8FFF7D1FEDDE90DB00C995D4600266C
:100A200010B909F101000D18B9EB050003D4C0F1AC
:100A3000FF3609F10105A5EB09002BE0B9F1010F23
:100A400001DA4FF001090020B9F1110F009048467A
:100A500001DD112300E003460AAA01A90CA8FFF753
:100A6000ABFEDDE90C704D4600268346207800077A
:100A70000AD4AB4500DA5D4601A8012D04DD411919
:100A800011F8011C302907D04F4502DA17F1040F85
:100A900004DA012082460FE06D1EEEE7002F02DC33
:100AA000ED1B3E4403E0781CA84200DD7D1CB81B12
:100AB00000F1010A4FF000472078000703D4AA454F
:100AC00001DB4FF0FF3A0021B7F1004F0DF1430871
:100AD0008DF8431024D002202B23002F01DA7F420F
:100AE0002D230A21021EA0F1010000DC5FB197FB5B
:100AF000F1FC97FBF1F201FB1C7C17460CF1300C6A
:100B000008F801CDEEE7A8F101000370218809057E
:100B100001D5452100E06521A0F1010800F8011C84
:100B200009980FA9A1EB0807FF1D00B10120411989
:100B300001EBEA70A1693844081A401EA0612078D0
:100B4000C00602D42046AFF30080099828B1D4E94A
:100B500001219047206A401C20622078C00622D5DF
:100B60002046AFF300801EE0002E04DBB34502DD1B
:100B700001A8805D00E03020D4E901219047206A7F
:100B8000401C2062761CAAF101005FEA000A0AD12B
:100B900000F066F8C0680168405CD4E90121904724
:100BA000206A401C2062281EA5F10105DCDC07E05C
:100BB000D4E9012118F8010B9047206A401C2062FB
:100BC000381EA7F10107F3DC2046AFF300800320B5
:100BD00011B041E601694A1C02610878704700B50E
:100BE0008FB0CDE901310021059105497944CDE966
:100BF000031011466846FFF77DFC0FB000BD0000F2
:100C0000E5FFFFFF0A6802F8010B0A60704710B5A4
:100C1000436913B1AFF3008001E0FFF7D9FB012076
:100C200010BD127800F124010A7000224A700122DE
:100C3000EDE711684FF0FF32E9E70000074B70B5B0
:100C40000D467B44FFF7CBFF0446284600F004F92D
:100C500010B14FF0FF3070BD204670BD7F26000000
:100C600000487047FC01002030B5B0F10A024FEA9D
:100C7000900E71F100034EEA817EB0EB0E0061EB45
:100C800091014FEA101E4EEA017E10EB0E0041EB7F
:100C900011114FEA102E4EEA016E10EB0E0041EBDF
:100CA00011214FEA104E4EEA014E10EB0E0041EBBF
:100CB0001141401841F100014FEAD00040EA417073
:100CC0004FEAD10110EB80054FEA810444EA9074A9
:100CD00044EB01046D1944EB0404521BA3414FF093
:100CE000000348BF0A3200D530BD401C41F100016D
:100CF00030BD00002DE9F0411F460446032601687F
:100D0000072A01F4006004DB08B116A505E016A56A
:100D100003E008B115A500E015A521F01000206042
:100D2000A069C01EA0610FB1401EA0612046AFF3B4
:100D300000804FB1D4E9012138469047206A401C19
:100D40002062C01C206206E0206AFAE7D4E9012193
:100D500015F8010B9047761EF8D22046AFF30080BD
:100D6000BDE8F0814E414E006E616E00494E460076
:100D7000696E66002DE9F047814616468AB035480F
:100D800078440DC88DE80D0032487844801C03ACCF
:100D90000DC884E80D0041F69B300844372190FBD4
:100DA000F1F290FBF1F5A5F1800501FB12041B3C6B
:100DB00002D56442012000E00020DFF898A08046C0
:100DC0000027FA44AAF1BE0A0EE0E0070AD0324634
:100DD000684607EB470101230AEB810100F003FBA2
:100DE0008DE8070064107F1C002CEED1194F7F4462
:100DF000AE3F19E0E80715D007EB04100DF1180A13
:100E000090E80E008AE80E00C068F04201D19819FF
:100E100008903246012306A903A800F0E4FA03ABC8
:100E200083E807006D10641C002DE3D14FF001032F
:100E300032466946B8F1000F03A802D000F0BEFAAE
:100E400001E000F0D0FAC9E90001C9F808200AB0B1
:100E5000BDE8F087E8B20000007B00F0800070473A
:100E600000487047DC0100207546FFF7F9FFAE46E9
:100E700005006946534620F00700854618B020B5A6
:100E8000FFF7FCF9BDE820404FF000064FF00007E7
:100E90004FF000084FF0000B21F00701AC46ACE822
:100EA000C009ACE8C009ACE8C009ACE8C0098D468F
:100EB000704710B50446AFF300802046BDE81040EF
:100EC000FFF7C1B95FEA400C08BF91F0000F4FEA8D
:100ED0008C234FEAC12243EA51514FEA1C5018BFFC
:100EE00000F5F0404FEA300018BF41F000415FEAE2
:100EF0006C5C00F02980BCF1FF3F08BF40F08040EF
:100F00007047130C06BF12044FF0100C4FF0000C8A
:100F1000130E04BF12020CF1080C130F04BF1201D0
:100F20000CF1040C930F04BF92000CF1020CD30FD0
:100F300004BF52000CF1010C11464FF00002A0F169
:100F40001F00A0EB0C00704711F0004F08BF704766
:100F500031F000413FF4D5AF0B0C06BF09044FF050
:100F6000100C4FF0000C0B0E04BF09020CF1080C22
:100F70000B0F04BF09010CF1040C8B0F04BF890097
:100F80000CF1020CCB0F04BF49000CF1010CCCF1A9
:100F90002003A0EB0C0022FA03F302FA0CF241EA60
:100FA000030100F10100704720F07F4C80EA03004C
:100FB00023F07F47ACEB070303F57C5300F00040C0
:100FC00003F1FF032DE980494FEA154B09B44FEABD
:100FD000144325EA0B4E24EA03480FF2042606EBDD
:100FE000132749083E785FEA320203FB0667C7F51C
:100FF000000707FB06F64FEA54374FEAD64606F1DC
:10100000020607FB066CCCF1005C4FEA1C472CEA99
:10101000074C07FB06F40CFB06F504EB15464FEAFC
:10102000961634BF00204FF000404FEAD13706FB40
:1010300007FC4FEA1C4C0CFB0BF7D21B03FB0CF715
:1010400061EB07010CFB0EF7B0EB074072EB1742A8
:101050000CFB08F734BFA2EB0742B2EB074261EB8F
:1010600017414FEA0C444FEA910706FB07FC4FEA91
:101070001C4C0CFB0BF7B0EBC74072EB573203FB79
:101080000CF734BFA2EBC742B2EBC74261EB57315A
:101090000CFB0EF7B0EBC70072EB57720CFB08F7B6
:1010A00034BFA2EBC702B2EBC70261EB5771039FDB
:1010B0004FEA816141EA921104EBCC044FEAD13747
:1010C0004FEA826206FB07FC42EA90124FEA806018
:1010D0004FEA1C4C0CFB0BF7D21B03FB0CF761EB2C
:1010E00007010CFB0EF7B0EB074072EB17420CFB4D
:1010F00008F734BFA2EB0742B2EB074261EB17419E
:101100004FEA8C554FEA910704EB9C2406FB07FC41
:101110004FEA1C4C0CFB0BF7B0EBC74072EB57329D
:1011200003FB0CF734BFA2EBC742B2EBC74261EB43
:1011300057310CFB0EF7B0EBC70072EB57720CFB8C
:1011400008F734BFA2EBC702B2EBC70261EB5771DD
:1011500015EB4C254FEA816141EA92114FEA826218
:101160004FEAD13742EA901206FB07FC44F1000433
:101170004FEA80604FEA1C4C0CFB0BF7D21B03FBC1
:101180000CF761EB07010CFB0EF7B0EB074072EBBD
:1011900017420CFB08F734BFA2EB0742B2EB074241
:1011A00061EB174115EB1C154FEA813141EA924181
:1011B0004FEA823242EA90424FEA80304FEA0C76A0
:1011C00044F1000448EA03434EEA0B484FF0000E96
:1011D000B2EB080C71EB030724BF624639464EEBB5
:1011E0000E0E4FF0000B0018524149414BEB0B0B18
:1011F000B2EB080C71EB03077BF1000B24BF6246D6
:1012000039464EEB0E0E4FF0000B0018524149418B
:101210004BEB0B0BB2EB080C71EB03077BF1000BF4
:1012200024BF624639464EEB0E0E51EA020718BF44
:1012300046F0010616EB0E7655F1000254F100015E
:1012400003D5BDE88901BDE80088BDE88901BDE896
:101250000048B619524141EB0101A3F10103704767
:1012600080807F7E7D7C7B7A7978777676757473E3
:10127000727171706F6E6E6D6C6C6B6A6A696868A2
:10128000676666656464636362616160605F5F5E38
:101290005E5D5D5C5C5B5B5A5A59595858575756AE
:1012A0005655555554545353525252515150505013
:1012B0004F4F4F4E4E4D4D4D4C4C4C4B4B4B4A4A65
:1012C0004A494949484848474747474646464545A9
:1012D00045444444444343434342424242414141E2
:1012E000002B9C4630D477002BD01CB54FEA370733
:1012F00003B44FF010004FF01001BAF1000F06D008
:10130000BCF1000FDCBF40F0080040F008014FF0D6
:1013100000000FBCBDE810400BF1010BBBF1010F49
:1013200008BF5FEA170722BF12F1010211F10101A4
:101330004FF0004143F1000300F0004043EA000099
:101340007047F9D35708D0E746EA064613F1400F35
:101350004FEA16461FDD13F1200FDFBF16430A4682
:10136000002120335B42BED0C3F1200746EA064687
:1013700002FA07F74FEA164646EA0706C3F12007C6
:1013800022FA03F201FA07F721FA03F14FF0000302
:1013900042EA0702A7E746EA020646EA06464FEA9D
:1013A000164646EA0106BCBF46EA0646360C4FF032
:1013B00000034FF000024FF0000194E72DE9804C4C
:1013C0009A46934670B491E8380007C831EA400C59
:1013D00048BF34EA430C03D5FFF7E6FDFFF780FF73
:1013E000F0BCBDE8008C2DE9804C9A46934670B461
:1013F00091E8380007C810F0804F08BF13F0804F05
:1014000003D100F005F8FFF76BFFF0BCBDE8008CDE
:1014100020F07F4780EA030023F07F4C07EB0C03AA
:10142000A3F57C5300F00040A3F1FE0392F0000FFF
:1014300000F0B38095F0000F00F077802DE90149AE
:101440004FEA11404FEA144621EA004800FB06FC2F
:1014500024EA064708FB06F607FB08F800FB07F737
:1014600018EB06484CEB164C4FEA124B18EB0748AA
:101470004FEA15464CEB174022EA0B4E0BFB06FCDD
:1014800025EA06470EFB06F607FB0EFE0BFB07F7E9
:101490001EEB064E4CEB164C4FF000061EEB074EB3
:1014A0004CEB174B18EB0B0840F1000018EB0E0B40
:1014B00058EB000840F100008F1A4FF000013CBFCC
:1014C000C943661B14BFB5EB040C00213CBFC943E4
:1014D000F61B4FEA17444EEA8E0E27EA04454FEA00
:1014E0001C4704FB07622CEA074C05FB07F70CFBC3
:1014F00005F604FB0CFC16EB074642EB174216EB15
:101500000C4642EB1C421BEB060658EB0202414123
:1015100046EA9E0601D5BDE80189B619524141EB64
:101520000101A3F10103BDE801894FEA14454FEA27
:10153000114724EA054621EA074C05FB07F406FBA0
:1015400007F70CFB06F105FB0CFC11EB074144EB24
:1015500017444FEA124711EB0C4144EB1C4422EABA
:10156000074C05FB07F206FB07F70CFB06F605FB2D
:101570000CFC16EB074642EB174216EB0C4642EB0F
:101580001C456A1854F1000148BF7047B619524112
:1015900041EB0101A3F10103704795F0000F37D033
:1015A0004FEA11424FEA144721EA024624EA074C67
:1015B00002FB07F106FB07F70CFB06F402FB0CFC31
:1015C00014EB074441EB17414FEA154714EB0C4469
:1015D00041EB1C4125EA074C02FB07F506FB07F728
:1015E0000CFB06F602FB0CFC16EB074645EB174519
:1015F00016EB0C4645EB1C42121951F1000148BF95
:101600007047B619524141EB0101A3F10103704744
:101610004FEA14454FEA114724EA054621EA074CF0
:1016200005FB07F106FB07F70CFB06F24FF000067F
:1016300005FB0CFC12EB074241EB174112EB0C428D
:1016400051EB1C4148BF7047921841EB0101A3F1D7
:101650000103704700BFFEE77047000070B5044605
:101660001D460023B5F5804F13D154F822300C48A5
:101670000340D1E9000640EA06108E6840EA0620E1
:101680008E8940EA06408E693043034344F8223095
:1016900003E06FF0704044F82200002070BD0000AD
:1016A0000000F0CF10B503460022086853F8202050
:1016B00012480240D1E901042043CC6820430C6960
:1016C00020434C6920438C692043CC6920430C6A39
:1016D00020434C6A20438C6A2043CC6A2043CC6B65
:1016E00020430C6B204302438868082801D142F054
:1016F0004002086843F82020002010BD8000F0FF61
:1017000030B503460024501C53F8204004F04044F8
:10171000D1E9000540EA05108D6840EA05208D8971
:1017200040EA0545088A401E45EA0055087D801EAE
:1017300045EA00608D6928430443501C43F820406B
:10174000002030BD70B50446A56D00F085F9064651
:1017500094F83500022808D08020606500BF002082
:1017600084F8340000BF012070BD2068006820F0BC
:101770001600216808602068406920F08000216818
:101780004861206C08B9A06C28B12068006820F07E
:101790000800216808602068006820F001002168C6
:1017A00008600FE000F058F9801B05280AD92020B6
:1017B000606500BF002084F8340000BF032084F877
:1017C0003500D1E72068006800F001000028E9D169
:1017D00094F85C103F208840A86000BF002084F887
:1017E000340000BF012084F835000020BCE701462A
:1017F00091F83500022803D0802048650120704709
:10180000052081F835000868006820F001000A68AA
:1018100010600020F3E70000F8B502460B460025F3
:10182000002400200021DEE0012606FA01F51E68F2
:1018300006EA0504AC4275D11E7906F00306012EB6
:1018400004D01E7906F00306022E13D190684F00D3
:101850000326BE40B0434F00DE68BE403043906078
:10186000506801268E40B0431E79C6F300168E40A4
:10187000304350601E7906F00306032E09D0D0686D
:101880004F000326BE40B0434F009E68BE40304329
:10189000D0601E7906F00306022E13D1CF0802F1A4
:1018A000200656F827004E07F70E0F26BE40B0431D
:1018B0004F07FF0E1E69BE403043CF0802F12006DD
:1018C00046F8270010684F000326BE40B0431E793B
:1018D00006F003064F00BE40304310605E6806F01D
:1018E0008056B6F1805F7DD100BF00260096404E45
:1018F000366846F480463E4F3E603E46366806F403
:101900008046009600BF00BF3A4E8F0856F8270069
:101910008E07370F0F26BE40B043374EB24202D17A
:10192000002624E05EE0354EB24201D101261EE0E1
:10193000334EB24201D1022619E0324EB24201D1F9
:10194000032614E0304EB24201D104260FE02F4EA0
:10195000B24201D105260AE02D4EB24201D106263F
:1019600005E02C4EB24201D1072600E008268F0781
:101970003F0FBE4030431F4E8F0846F82700264ECB
:101980003068A0435E6806F48036B6F5803F00D12B
:101990002043214E3060361D3068A0435E6806F457
:1019A0000036B6F5003F00D120431B4E361D306097
:1019B000361D3068A0435E6806F48016B6F5801FB9
:1019C00000D12043144E08363060361D3068A043E5
:1019D0005E6806F40016B6F5001F00D120430E4ED7
:1019E0000C363060491C1029FFF41EAFF8BD000012
:1019F0004438024008380140000002400004024020
:101A000000080240000C0240001002400014024096
:101A100000180240001C0240003C014002461369CD
:101A20000B400BB1012000E00020704710B5426967
:101A300021EA020302EA010443EA0443836110BD80
:101A40000AB1816101E00B048361704701480068BD
:101A5000000C7047002004E0014800687047000057
:101A60001000002003480068034909780844014930
:101A700008607047100000201800002010B50A48C8
:101A8000006840F40070084908600846006840F4A7
:101A900080600860052000F07FF80F2000F006F855
:101AA00000F02AF8002010BD003C024070B504464A
:101AB0000E4800784FF47A71B1FBF0F00C490968D8
:101AC000B1FBF0F5284600F087FC08B1012070BD9D
:101AD000102C07D200222146501E00F01EF80548A7
:101AE000046001E00120F2E70020F0E71800002088
:101AF000000000201400002070470146084600281E
:101B000009DB00F01F0301229A4043099B0003F107
:101B1000E023C3F8002100BF70472DE9F05F804645
:101B20000D461646002701F0E1F8074639462A46D9
:101B3000334601F00700C0F1070ABAF1040F02D9D9
:101B40004FF0040A01E0C0F1070AD14600F1040A8F
:101B5000BAF1070F02D24FF0000A01E0A0F1030A28
:101B6000D4464FF0010A0AFA09FAAAF1010A0AEA70
:101B7000020A0AFA0CFA4FF0010B0BFA0CFBABF15C
:101B8000010B0BEA030B4AEA0B042146404601F025
:101B9000B5F8BDE8F09F000000BF00F00702064B5B
:101BA00019684FF6FF031940044B0B4343EA022127
:101BB000014B196000BF70470CED00E00000FA0512
:101BC00070B504460D460CB9012070BD5848006838
:101BD00000F00700A84209D255490D700846006878
:101BE00000F00700A84201D00120EEE7207800F0C5
:101BF000020002281DD1207800F00400042805D13D
:101C00004C48006840F4E0504A490860207800F0F1
:101C10000800082805D14748006840F4604045495D
:101C200008604448006820F0F000A168084341497A
:101C30000860207800F00100A8B36068012807D18F
:101C40003C4808380068C0F34040B8B90120BCE700
:101C50006068022802D06068032807D13548083838
:101C60000068C0F3406048B90120AEE73148083849
:101C70000068C0F3400008B90120A6E72D480068BD
:101C800020F00300616808432A490860FFF7E4FE7A
:101C9000064609E0FFF7E0FE801B41F288318842EA
:101CA00002D9032091E707E02248006800F00C0009
:101CB0006168B0EB810FEDD11D48006800F00700AE
:101CC000A84209D91A490D700846006800F00700BB
:101CD000A84201D0012078E7207800F00400042811
:101CE00007D11448006820F4E050E1680843114926
:101CF0000860207800F00800082808D10D48006826
:101D000020F46040216940EAC1000A49086000F0FF
:101D10003FF808490968C1F30311074A515CC840FC
:101D20000649086006480068FFF7C0FE00204CE73F
:101D3000003C024008380240FA8F000800000020F2
:101D400014000020014800687047000000000020D7
:101D500000B5FFF7F7FF04490968C1F38221034A80
:101D6000515CC84000BD0000083802400A900008DD
:101D700000B5FFF7E7FF04490968C1F34231034AA0
:101D8000515CC84000BD0000083802400A900008BD
:101D90002DE9F047002400250026A14625480068CB
:101DA00000F00C0020B1042805D008283AD105E045
:101DB000DFF8849039E0DFF8849036E01D48001F9A
:101DC000006800F03F041B48001F006800F480001A
:101DD00078B11A481749091F0968C1F38811A0FB97
:101DE00001700146224600233846FEF75AFA05469E
:101DF0000EE011480F49091F0968C1F38811A0FBC3
:101E000001700146224600233846FEF74AFA05468D
:101E10000848001F0068C0F30140401C4600B5FBA5
:101E2000F6F902E0DFF8109000BF00BF4846BDE8B9
:101E3000F0870000083802400024F40000127A0005
:101E4000F8B504460CB90120F8BD207800F0010077
:101E5000002874D0F948006800F00C0004280DD068
:101E6000F648006800F00C00082813D1F348001F62
:101E7000006800F48000B0F5800F0BD1EF480838FF
:101E80000068C0F34040002859D06068002856D14F
:101E90000120D9E700BF6068B0F5803F08D1E7486E
:101EA0000838006840F48030E449083908601EE0D2
:101EB0006068B0F5A02F0DD1E0480838006840F404
:101EC0008020DE49083908600846006840F4803008
:101ED00008600CE0D9480838006820F48030D74901
:101EE000083908600846006820F48020086000BFB8
:101EF000606890B1FFF7B0FD054606E0FFF7ACFD66
:101F0000401B642801D903209EE7CC4808380068AC
:101F1000C0F340400028F1D011E0FFF79DFD0546D9
:101F200006E0FFF799FD401B642801D903208BE7E9
:101F3000C24808380068C0F340400028F1D120783A
:101F400000F0020002285FD1BC48006800F00C00DD
:101F500058B1BA48006800F00C0008281CD1B748F6
:101F6000001F006800F48000B0B9B4480838006869
:101F7000C0F3400020B1E068012801D0012063E7F0
:101F8000AE480838006820F0F800216940EAC10036
:101F9000AA490839086037E0E06800B30120A84981
:101FA0000860FFF759FD054606E0FFF755FD401BA9
:101FB000022801D9032047E7A04808380068C0F389
:101FC00040000028F1D09D480838006820F0F80053
:101FD000216940EAC10099490839086014E00020ED
:101FE00097490860FFF738FD054606E0FFF734FD26
:101FF000401B022801D9032026E7904808380068D2
:10200000C0F340000028F1D1207800F00800082833
:102010002CD16069A8B101208A490860FFF71CFD36
:10202000054606E0FFF718FD401B022801D90320F2
:102030000AE782486C300068C0F340000028F1D005
:1020400014E000207F490860FFF706FD054606E022
:10205000FFF702FD401B022801D90320F4E6774870
:102060006C300068C0F340000028F1D1207800F007
:102070000400042870D1002770483830006800F050
:10208000805090B900BF002000906C483830006844
:1020900040F080506949383108600846006800F017
:1020A0008050009000BF00BF01276748006800F41F
:1020B0008070B0B96448006840F48070624908607C
:1020C000FFF7CAFC054606E0FFF7C6FC401B0228E6
:1020D00001D90320B8E65C48006800F4807000284D
:1020E000F2D000BFA068012808D1544868300068C9
:1020F00040F001005149683108601DE0A0680528E2
:102100000DD14E486830006840F004004B496831FA
:1021100008600846006840F0010008600CE047488D
:102120006830006820F001004449683108600846C2
:10213000006820F00400086000BFA068A8B1FFF7A5
:102140008BFC054609E0FFF787FC401B41F2883114
:10215000884202D9032077E626E0384868300068D4
:10216000C0F340000028EED013E0FFF775FC0546F1
:1021700008E0FFF771FC401B41F28831884201D929
:10218000032061E62D4868300068C0F34000002855
:10219000EFD1012F07D129483830006820F0805056
:1021A00026493831086000BFA069002845D023487F
:1021B000006800F00C0008285DD0A069022845D115
:1021C00000201F490866FFF747FC054606E0FFF7B9
:1021D00043FC401B022801D9032035E61748083884
:1021E0000068C0F340600028F1D1D4E9070108433A
:1021F000616A40EA81110122A06AC2EB500041EA03
:1022000000412C20005D41EA00600C49091F086074
:1022100001200B490866FFF71FFC054606E0FFF7A3
:102220001BFC401B022801D903200DE60348083897
:102230000068C0F340600028F1D049E0083802404F
:1022400000004742800E47420070004000202149B4
:102250000866FFF701FC054606E0FFF7FDFB401BA3
:10226000022801D90320EFE51B480068C0F3406055
:102270000028F2D12CE0A069012800D1E4E516483D
:10228000001D0668A069012820D006F48001E069DD
:1022900081421BD106F03F01206A814216D147F6E8
:1022A000C0703040616AB0EB811F0FD106F440313D
:1022B0000122A06AC2EB5000B1EB004F06D106F03C
:1022C00070612C20005DB1EB006F01D00120BBE5F7
:1022D0000020B9E5000047420038024070B50446CE
:1022E0000E4615460CB9012070BD94F8490028B976
:1022F000002084F84800204600F01CF804F1080192
:102300002068FFF7CFF93146A2682068FFF7F8F997
:102310002946236BD4E90102FFF7A0F9A1682068E0
:1023200050F8210040F00100A268216841F8220025
:102330000020D9E710B586B0044600BF0020009009
:102340002248006840F00100204908600846006803
:1023500000F00100009000BF00BF00BF002000900F
:102360001A480838006840F0080018490839086021
:102370000846006800F00800009000BF00BF00BFE2
:10238000002000900846006840F0100008600846F1
:10239000006800F01000009000BF00BF4CF2037016
:1023A00001900220029001200390022004900C2052
:1023B000059001A90648FFF72FFA4FF680700190AB
:1023C00001A90448FFF728FA06B010BD38380240CA
:1023D000000C02400010024070B504462546681EFD
:1023E000B0F1807F01D301200FE0681E4FF0E021A3
:1023F00048610F214FF0FF3000F080FC00204FF0CB
:10240000E021886107200861002070BD7047704797
:102410002DE9F84F0446206805682068C6682068E2
:1024200047694FF00009CA4605F00F09B9F1000FDE
:102430000AD105F0200038B106F0200020B1204676
:1024400000F069FABDE8F88FB9F1000F72D007F01B
:10245000010018B906F4907000286BD005F0010057
:1024600030B106F4807018B1206C40F00100206497
:1024700005F0040030B107F0010018B1206C40F005
:102480000200206405F0020030B107F0010018B12D
:10249000206C40F00400206405F0080048B106F00C
:1024A000200010B907F0010018B1206C40F00800BE
:1024B0002064206C70B305F0200028B106F02000E5
:1024C00010B1204600F027FA20684069C0F3801A56
:1024D000206C00F0080010B9BAF1000F23D020469C
:1024E00000F0EEF92068406900F04000402816D165
:1024F0002068406920F0400021684861A06B50B11D
:102500005648A16B0865A06BFFF771F910B1A06B7D
:10251000016D88470CE02046FFF779FF08E0204670
:10252000FFF775FF04E02046FFF771FF00202064ED
:1025300088E7FFE7206B012879D105F0100000281B
:1025400075D006F01000002871D000BF0020009068
:1025500020680068009020684068009000BF00BFBD
:102560002068406900F04000402839D1A06B006825
:1025700040681FFA80F8B8F1000F30D0A08D4045B8
:102580002DDDA4F82E80A06BC069B0F5807F1FD030
:102590002068C06820F480702168C86020684069A5
:1025A00020F00100216848612068406920F0400067
:1025B00021684861202084F83E00002020632068C4
:1025C000C06820F010002168C860A06BFFF7BAF85F
:1025D000A08DE28D801A81B22046FFF717FF31E708
:1025E000A08DE18D401A1FFA80F8E08DE8B1B8F1B6
:1025F000000F1AD02068C06820F490702168C8606D
:102600002068406920F0010021684861202084F89A
:102610003E00002020632068C06820F01000216880
:10262000C86041462046FFF7F1FE0BE7FFE705F0E3
:10263000800030B106F0800018B1204600F003FBA6
:1026400000E705F0400030B106F0400018B1204628
:1026500000F051F9F6E600BFF4E60000AD280008EE
:1026600010B504460CB9012010BDA06900B100E00E
:1026700000BF94F83D0028B9002084F83C002046B3
:1026800000F028F8242084F83D002068C06820F479
:1026900000502168C860204600F09CF9206800695D
:1026A00020F49040216808612068406920F02A00E9
:1026B000216848612068C06840F400502168C86003
:1026C00000202064202084F83D0084F83E00002093
:1026D000CAE7000010B586B004462E49206888423B
:1026E00055D100BF00BF002000902B48006840F08B
:1026F0001000294908600846006800F010000090AA
:1027000000BF00BF00BF00BF00BF002000902248F4
:102710001438006840F001001F4914390860084669
:10272000006800F00100009000BF00BF00BF00BFC4
:1027300000BF002000900846006840F001000860DB
:102740000846006800F00100009000BF00BF00BF15
:10275000481501900220029001200390022004906D
:102760000720059001A90D48FFF756F84FF4806047
:1027700001900720059001A90848FFF74DF8252092
:10278000FFF7BBF9032211462520FFF7C6F906B073
:1027900010BD00000010014044380240000002401B
:1027A00070B504460D46164694F83E00202816D112
:1027B00005B10EB9012070BD00BF94F83C0001289E
:1027C00001D10220F7E7012084F83C0000BF00207F
:1027D000206332462946204600F012FAEBE7022039
:1027E000E9E7000010B504462049206888423BD143
:1027F0001F48008800F4004088BB1D48008800F492
:10280000804070B11B4800780A2803D00020184986
:10281000088024E01648008840F4004014490880ED
:102820001DE0144800780D2806D11148008840F4B6
:1028300080400F49088012E00E4800780C49098852
:10284000C1F30D010C4A505409480088401C084946
:10285000088008460088C72801DD00200880012282
:1028600004490648FFF79CFF10BD0000001001401E
:102870000C0000200E000020700000203801002015
:10288000704700BFFEE700BFFEE770477047704724
:1028900010B5FFF7E7F810BD0348006840F470007A
:1028A000014908607047000088ED00E070B50546FA
:1028B000AC6B0020E085E0842046FFF7A8FD70BDEA
:1028C0000168C96821F490710268D16001684969A2
:1028D00021F0010102685161016B012905D10168F4
:1028E000C96821F010010268D160202180F83E10F3
:1028F00000210163704710B504462068C06820F0CD
:1029000040002168C860202084F83D002046FFF781
:10291000B7FF002010BD70B5044694F83E00222891
:1029200056D1A068B0F5805F0CD1206950B9002560
:10293000A66A20684068C0F308003080A06A801C46
:10294000A06215E0A56A0026A068B0F5805F03D0FC
:10295000A06828B9206918B920684068287004E088
:102960002068406800F07F002870A06A401CA062C8
:10297000E08D401E80B2E08540BB2068C06820F03A
:1029800020002168C8602068C06820F48070216839
:10299000C8602068406920F001002168486120205B
:1029A00084F83E00206B01280AD12068C06820F01E
:1029B00010002168C860A18D2046FFF727FD02E0C6
:1029C0002046FFF70FFF0020206370BD0020FCE7CA
:1029D0000220FAE72DE9F84F04462068006920F448
:1029E0004050E1680843216808612169A0680843F4
:1029F00061690843E169084300902068C06849F2B2
:102A00000C618843009908432168C86020684069C8
:102A100020F44070A1690843216848617649206824
:102A2000884203D075492068884203D1FFF7A0F996
:102A3000814602E0FFF78CF98146E069B0F5004F6E
:102A40006CD102206168A0FB015003461920A9FB4C
:102A5000007001462A463846FDF723FC6421B0FB8E
:102A6000F1F04FEA001A02206168A0FB01510B4609
:102A70001920A9FB00712A463846FDF712FC83464F
:102A800002206168A0FB015003461920A9FB0071D8
:102A90002A463846FDF705FC6421B0FBF1F000EB57
:102AA000C00101EB0010ABEB8000322101EBC00054
:102AB0006421B0FBF1F000F0F8000AEB400A0220BC
:102AC0006168A0FB015003461920A9FB0070014674
:102AD0002A463846FDF7E5FB834602206168A0FBE5
:102AE000015003461920A9FB00712A463846FDF71C
:102AF000D8FB6421B0FBF1F000EBC00101EB00104A
:102B0000ABEB8000322101EBC0006421B0FBF1F09F
:102B100000F007005044216888606AE00420616882
:102B2000A0FB015003461920A9FB007001462A466C
:102B30003846FDF7B6FB824604206168A0FB0150D1
:102B400003461920A9FB007001462A463846FDF7C6
:102B5000A8FB6421B0FBF1F000EBC00101EB001019
:102B6000AAEB8000322101EB00106421B0FBF1F0F0
:102B700000F0F00A04206168A0FB017003461920F0
:102B8000A9FB00513A462846FDF78BFB6421B0FBB8
:102B9000F1F00AEB001A04206168A0FB01510B461A
:102BA0001920A9FB00712A463846FDF77AFB8346B7
:102BB00004206168A0FB015003461920A9FB0070A6
:102BC00001462A463846FDF76CFB6421B0FBF1F064
:102BD00000EBC00101EB0010ABEB8000322101EBF8
:102BE00000106421B0FBF1F000F00F0050442168A8
:102BF0008860BDE8F88F000000100140001401401B
:102C000010B5034699629A85DA850020186422205F
:102C100083F83E0000BF002083F83C0000BF186826
:102C2000C06840F480701C68E0601868406940F03B
:102C300001001C6860611868C06840F020001C68D2
:102C4000E060002010BD014691F83D00212828D108
:102C50008868B0F5805F0BD1086948B90A6A1088A6
:102C6000C0F308000B685860086A801C086205E021
:102C70000B6A581C086218780B685860C88C401E94
:102C800080B2C88458B90868C06820F080000B681A
:102C9000D8600868C06840F040000B68D860002029
:102CA00070470220FCE7000010B50248FFF7B0FBB8
:102CB00010BD00003801002000BFFEE703B40198FA
:102CC0004100009850EAC12018BF04204A0D18BFE7
:102CD00040F0010040F2FF72B2EB515F08BF40F0DC
:102CE0000200012808BF052002B0704702480068B2
:102CF000C0F30220704700000CED00E010B5002882
:102D000004DB0A07130E054A135406E00A07140EE3
:102D1000034A00F00F031B1FD45410BD00E400E071
:102D200018ED00E030380A2801D201207047002059
:102D3000704700BF704710B500F06AFF10BD70B556
:102D400005460C46164606E028466A1C95B200F079
:102D500008F804F8010B301EA6F101018EB2F3D180
:102D600070BD70B50446002601F01CF82112A022A7
:102D700002EB4101C8B200F0DDFF01F05BF825462F
:102D8000E11704EB11610912A4EB0121C8B200F0B4
:102D9000D1FF01F04FF801F005F8A12000F0CAFFC3
:102DA00001F048F8002000F095FF064601F022F8F7
:102DB000304670BD70B505460C46164606E02178D3
:102DC000284600F009F8681C85B2641C301EA6F184
:102DD00001018EB2F3D170BD70B504460E4600F00D
:102DE000E1FF2112A02202EB4101C8B200F0A2FFD4
:102DF00001F020F82546E11704EB11610912A4EB5C
:102E00000121C8B200F096FF01F014F8304600F03E
:102E100091FF01F00FF800F0EDFF0A2000F024FA16
:102E200070BD000010B500BF00224FF400611148D2
:102E3000FEF706FE00BF00F021F800BF0122114698
:102E40000D48FEF7FDFD00BF00F018F800BF00229E
:102E500001210948FEF7F4FD00BF00F00FF800BFA4
:102E60000122D1020348FEF7EBFD00BF00F006F897
:102E700010BD0000001402400004024010B5022002
:102E800000F0FCF910BD000000B587B000BF00BF26
:102E9000002001901A48006840F0020018490860BC
:102EA0000846006800F00200019000BF00BF00BFAC
:102EB00000BF00BF002001900846006840F02000DD
:102EC00008600846006800F02000019000BF00BFC5
:102ED00000BF0120029011200390012004900320E4
:102EE000059002A90748FEF797FC4FF40060029096
:102EF00002A90548FEF790FC00F0BEF807B000BD3F
:102F000030380240000402400014024010B500BFF7
:102F10000122D1020C48FEF793FD00BFFFF7AEFF80
:102F200000BF012211460948FEF78AFD00BFFFF7E6
:102F3000A5FF00BF002201210448FEF781FD00BF6C
:102F4000FFF79CFF10BD0000001402400004024087
:102F500070B50546002400261DE06006040E00BF83
:102F6000012211461148FEF76BFD00BFFFF786FFF7
:102F70004FF400610E48FEF751FD08B1601CC4B269
:102F800000BF002201210948FEF75AFD00BFFFF7EC
:102F900075FF701CC6B2082EDFDB15B9FFF7B6FF50
:102FA00001E0FFF73FFF204670BD00000004024033
:102FB0000014024070B50446002525E000BFE0097A
:102FC00028B10122D1021548FEF73AFD05E00022A2
:102FD0004FF400611148FEF733FD00BFFFF74EFFCD
:102FE00000BF012211460E48FEF72AFD00BFFFF781
:102FF00045FF00BF002201210948FEF721FD00BF67
:103000006006040E681CC5B2082DD7DB00BF012284
:10301000D1020248FEF714FD00BF70BD001402404B
:103020000004024010B500BF0122D1021048FEF793
:1030300007FD00BF00BF012211460E48FEF700FD4C
:1030400000BFFFF71BFF00BF00224FF400610848DC
:10305000FEF7F6FC00BFFFF711FF00BF00220121C1
:103060000448FEF7EDFC00BFFFF708FF10BD0000AD
:10307000001402400004024010B500BF00224FF4CB
:1030800000610C48FEF7DCFC00BFFFF7F7FE00BF55
:10309000012211460848FEF7D3FC00BFFFF7EEFE01
:1030A00000BF0122D1020348FEF7CAFC00BFFFF7B0
:1030B000E5FE10BD001402400004024070B500247B
:1030C000002500BF0122D1021648FEF7B9FC00BF5F
:1030D000FFF7D4FE00BF012211461348FEF7B0FCF3
:1030E00000BFFFF7CBFE09E0601CC4B2FA2C03DD81
:1030F000FFF7C2FF012508E0FFF7C0FE4FF40061B3
:103100000848FEF78BFC0028EED100BF00BF00226C
:1031100001210548FEF794FC00BFFFF7AFFE2846EB
:1031200070BD000000140240000402408CB0002476
:10313000002505264548808841F21801884200D1C3
:103140000A2682E04248416800208847002468E05F
:103150003F48808E0121A140084000285AD03C48B9
:103160000C3030F8140039490988884257DA384859
:10317000203030F814003549498888424FDA02A8D7
:1031800030F824004FF6FF7188420DD130480C30E2
:1031900030F8140002A921F824002D48203030F81E
:1031A000140001EB840148802A4830F81400022101
:1031B000274F2037CDE9001037F81430143F37F887
:1031C000142002AF07EB8407798802AF37F8240098
:1031D00001F014F81E480C3030F8140002A921F850
:1031E00024001B48203030F8140001EB8401488093
:1031F00017480C3030F814101448008818388142F1
:103200000DDD1348203030F81400142807DA04F0DC
:10321000DFFB04E04FF6FF7002A921F82400601CD8
:10322000C4B2B44294DB052000F01EF8681CC5B29D
:10323000142095FBF0F100FB115030B900BF4FF4A2
:1032400000710548FEF7F2FB00BF7BE7CC010020D0
:1032500028000020E68F00080014024001490860A1
:10326000704700000400002010B504464FF47A7146
:1032700004FB01F000F002F810BD000070B5034639
:1032800000224FF0E02675690D4E366803FB06F408
:103290004FF0E026B16910E04FF0E026B0698842B7
:1032A0000BD0884202D20E1A324402E02E1A0E448B
:1032B00032440146A24200D300E0EDE700BF70BDFA
:1032C0000400002000BF054A126802F04002002AF4
:1032D000F9D0C2B2014B5A607047000000100140A3
:1032E00000B587B000BF00BF0020009049480068CB
:1032F00040F00400474908600846006800F00400F8
:10330000009000BF00BF00BF00BF00BF00200090C2
:103310000846006840F0020008600846006800F0B7
:103320000200009000BF00BF00BF4FF400500290A9
:103330000120039004900320059002A93648FEF76F
:103340006BFA0220029000200390012004900320D9
:10335000059002A93148FEF75FFAFFF795FD00BF1F
:1033600000224FF400512C48FEF76AFB00BF1420E6
:10337000FFF77AFF00BF012251032748FEF760FBE9
:1033800000BF3220FFF770FF00208DF804000122FB
:1033900001A900F049F9012201A9A42000F044F993
:1033A00016208DF80400012201A9802000F03CF9CC
:1033B0000C208DF80400012201A9882000F034F9C6
:1033C000022201A9A12000F031F89DF80400302864
:1033D00003D19DF8050003280DD09DF805000128B4
:1033E00009D09DF80500022805D09DF8040070B9A9
:1033F0009DF8050058B99DF805009DF8042000EBE4
:10340000022107A0FCF7C4FF002007B000BD012087
:10341000FBE7000030380240000802400004024090
:103420004354502049443A25780D0A002DE9F041D3
:1034300006460F461546FFF7F5FD7020FFF7BAFD6B
:10344000FFF73CFEF0B2FFF7B5FDFFF737FEFFF7E1
:10345000E9FD7120FFF7AEFDFFF730FE00240BE021
:10346000691EA14201D0012100E000210846FFF7BA
:103470006FFD3855601CC4B2AC42F1DBFFF7FCFDB8
:10348000BDE8F0812DE9FC410746002001900024B1
:10349000002661480078401C5F49087008460078A3
:1034A0000A2190FBF1F201FB120018B15A48007892
:1034B0000A2867DA012201A90220FFF7B7FF9DF869
:1034C000040000F00F0000285CD09DF8040000F01C
:1034D0000F0006287BDA9DF8040000F00F014FF67C
:1034E000FF70884085B2E84380B240F440404B49C9
:1034F00088860420FFF7B8FE00245AE04748808EF3
:103500000121A1400840E0B3454931F814000422EC
:103510006946FFF78BFF414890F8440000F0010036
:10352000C0B19DF801009DF8001001F00F0100EB03
:1035300001203A49203121F814009DF803009DF83C
:10354000021001F00F0100EB012134480C3020F88B
:1035500014101EE09DF801009DF8001001F00F010D
:1035600000EB01202F490988081A81B22B480C3042
:1035700020F814109DF803009DF8021001F00F01CF
:1035800001E014E023E000EB01202449203121F880
:1035900014009DF8000000F0F000802807D0002102
:1035A0001E48203020F81410143820F81410601C25
:1035B000C4B2052CA2DB01261848808920B917481F
:1035C000008C08B9002001900020134908709DF874
:1035D000040000F01F00A8B91048808E00F40040DD
:1035E00030B10E48808E20F400400C49888609E0F6
:1035F0004FF6FF700949888108840846808E00F4E0
:103600006040888604480078F02802DD0A200249DC
:1036100008703046BDE8FC8125000020280000200D
:1036200092BF0008CC0100202DE9F04105460E466E
:1036300017464FF00008FFF7F5FC7020FFF7BAFCC3
:10364000FFF73CFDE8B2FFF7B5FCFFF737FD0024BC
:103650000BE0305DFFF7AEFCFFF730FD8046B8F1C0
:10366000000F00D003E0601CC4B2BC42F1DB00BF1D
:10367000FFF702FD4046BDE8F081000000B589B0CB
:1036800000BF00BF002001904F48006840F00400D8
:103690004D4908600846006800F00400019000BF32
:1036A00000BF00BF00BF00BF0020019008460068B7
:1036B00040F0020008600846006800F00200019037
:1036C00000BF00BF00BF4FF40050049001200590E0
:1036D00006900320079004A93C48FEF79DF80220BD
:1036E000049000200590012006900320079004A973
:1036F0003748FEF791F8FFF7C7FB00BF00224FF4F1
:1037000000513248FEF79CF900BF0A20FFF7ACFDDC
:1037100000BF012251032D48FEF792F900BF0A2095
:10372000FFF7A2FD022004900020059006900320E0
:10373000079004A92648FEF76FF86420FFF794FD70
:10374000042202A948F2401000F05AF800208DF837
:103750000C0020A102A8FCF791FF88B11EA102A8CD
:10376000FCF78CFF60B11EA102A8FCF787FF38B1FF
:103770001DA102A8FCF782FF10B1012009B000BD15
:1037800002A91BA0FCF704FE17A102A8FCF776FF14
:1037900010B90A201949087002208DF8080001228A
:1037A00002A948F2400000F0D5F90A20FFF75CFDBD
:1037B00000208DF80800012202A948F2400000F024
:1037C000C9F90020DAE70000303802400008024062
:1037D0000004024039313100393134370000000033
:1037E0003131353800000000393237310000000037
:1037F0004354502049443A25730D0A002600002006
:103800002DE9F04105460F461646FFF70BFC282030
:10381000FFF7D0FBFFF752FC2812FFF7CBFBFFF7B7
:103820004DFCE8B2FFF7C6FBFFF748FCFFF7FAFBD9
:103830002920FFF7BFFBFFF741FC00240BE0711EBE
:10384000A14201D0012100E000210846FFF780FBE2
:103850003855601CC4B2B442F1DBFFF70DFCBDE883
:10386000F081000071B583B0002001900026B448BB
:103870000078401CB2490870084601780A2091FB84
:10388000F0F200FB121018B1AD4800780A287DDA7A
:10389000012203A948F24E10FFF7B2FF9DF80C0079
:1038A00000F0800078B19DF80C0000F00F00A549F1
:1038B0000978884207DC00200190012201A948F222
:1038C0004E1000F047F99DF80C0000F00F000028A2
:1038D0005CD09DF80C0000F00F009A4909788842EE
:1038E00054DC9DF80C0000F00F014FF6FF7088408B
:1038F00084B29548858EE04380B240F440409249BE
:103900008886084682898F480078401E0C3121F84D
:1039100010208D48028C8B480078401E143121F80D
:10392000102000200190A7E08748808E9DF8042099
:1039300001219140084000283FD084499DF804208F
:1039400031F81200042202A9FFF75AFF804880884C
:1039500045F2105188420BD07D48808849F6060117
:10396000884205D07A48808847F29671884240D1D3
:10397000754890F8440000F00100F8B19DF80A0085
:103980009DF80B1000EB0120714900E0B2E00988BE
:10399000081A81B26C480C309DF8042020F81210EF
:1039A0009DF808009DF8091000EB012081B26648DF
:1039B00020309DF8042020F8121058E09DF80800EF
:1039C0009DF8091000EB012081B25F480C309DF892
:1039D000042020F812109DF80A009DF80B1000EB4F
:1039E000012081B2584820309DF8042020F81210A0
:1039F0003DE0554890F8440000F00100D0B19DF83A
:103A000008009DF8091000EB012081B24E480C30EF
:103A10009DF8042020F812109DF80A009DF80B1064
:103A200000EB012081B2484820309DF8042020F8A6
:103A300012101CE09DF80A009DF80B1000EB01200D
:103A400043490988081A81B23F480C309DF8042088
:103A500020F812109DF808009DF8091000EB0120D5
:103A600081B2394820309DF8042020F812109DF8CA
:103A70000400401CC0B201909DF80400314909784F
:103A80008842FFF651AF01262F48808930490988C6
:103A9000884205DC2C48008C2D494988884226DD67
:103AA0009DF80C0000F00F0001280ADD2648C089AF
:103AB000254988810846408C0884002020490870E8
:103AC00018E020480078401E1F490C3131F81000E2
:103AD0000C3988811B480078401E203131F81000D5
:103AE00020390884802003900846858602E0002063
:103AF000134908709DF80C0000F08F00802815D144
:103B00001148808E00F4004030B10F48808E20F4C0
:103B100000400D49888609E04FF6FF700A49888108
:103B200008840846808E00F4604088860448007847
:103B3000F02802DD0A2002490870304604B070BD4A
:103B40002700002026000020280000209CBF00083D
:103B5000CC0100202DE9F04104460E4617464FF0F7
:103B60000008FFF75FFA2820FFF724FAFFF7A6FA0C
:103B70002012FFF71FFAFFF7A1FAE0B2FFF71AFAD7
:103B8000FFF79CFA00250BE0705DFFF713FAFFF7D3
:103B900095FA8046B8F1000F00D003E0681CC5B26A
:103BA000BD42F1DB00BFFFF767FA4046BDE8F08198
:103BB00010B500BF00224FF400711148FDF740FF1F
:103BC00000BF00F01FF800BF012211020C48FDF7F2
:103BD00037FF00BF00F016F800BF00224FF48071DD
:103BE0000748FDF72DFF00BF00F00CF800BF0122D1
:103BF00051020348FDF724FF00BF00F003F810BD99
:103C00000004024010B50220FFF738FB10BD000091
:103C100000B587B000BF00BF002001901B480068BE
:103C200040F00200194908600846006800F00200F0
:103C3000019000BF00BF00BF00BF00BF0020019087
:103C40000846006840F0020008600846006800F07E
:103C50000200019000BF00BF00BF88150290012044
:103C6000039004900320059002A90948FDF7D4FDB4
:103C70004FF4007002901120039002A90448FDF750
:103C8000CBFD00F0B7F807B000BD000030380240AF
:103C90000004024010B500BF012251020C48FDF79C
:103CA000CFFE00BFFFF7AEFF00BF012211020848A0
:103CB000FDF7C6FE00BFFFF7A5FF00BF00224FF4CF
:103CC00080710348FDF7BCFE00BFFFF79BFF10BDEE
:103CD0000004024070B50546002400261EE0600680
:103CE000040E00BF012211021148FDF7A9FE00BF1A
:103CF000FFF788FF4FF400710D48FDF78FFE08B104
:103D0000601CC4B200BF00224FF480710848FDF768
:103D100097FE00BFFFF776FF701CC6B2082EDEDBF1
:103D200015B9FFF7B7FF01E0FFF742FF204670BD6E
:103D30000004024070B50446002526E000BFE009FB
:103D400028B1012251021648FDF77AFE05E0002253
:103D50004FF400711248FDF773FE00BFFFF752FFEA
:103D600000BF012211020E48FDF76AFE00BFFFF7F7
:103D700049FF00BF00224FF480710948FDF760FE43
:103D800000BF6006040E681CC5B2082DD6DB00BF5C
:103D9000012251020248FDF753FE00BF70BD000032
:103DA0000004024010B500BF012251021048FDF787
:103DB00047FE00BF00BF012211020D48FDF740FE83
:103DC00000BFFFF71FFF00BF00224FF4007108483B
:103DD000FDF736FE00BFFFF715FF00BF00224FF4CE
:103DE00080710348FDF72CFE00BFFFF70BFF10BDED
:103DF0000004024010B500BF00224FF400710C48CF
:103E0000FDF71EFE00BFFFF7FDFE00BF01221102FD
:103E10000748FDF715FE00BFFFF7F4FE00BF0122C3
:103E200051020348FDF70CFE00BFFFF7EBFE10BD8B
:103E30000004024070B50024002500BF0122510299
:103E40001548FDF7FDFD00BFFFF7DCFE00BF0122B6
:103E500011021148FDF7F4FD00BFFFF7D3FE07E0A4
:103E6000601CC4B2FA2C03DDFFF7C4FF012506E095
:103E70004FF400710848FDF7D1FD0028F0D100BFD4
:103E800000BF00224FF480710348FDF7D9FD00BF49
:103E9000FFF7B8FE284670BD0004024000B587B0A9
:103EA00000BF00BF002001903848006840F01000BB
:103EB000364908600846006800F01000019000BF15
:103EC00000BF00BF00BF00BF00200190084600688F
:103ED00040F0100008600846006800F010000190F3
:103EE00000BF00BF00BF00BF00BF00200190084618
:103EF000006840F0100008600846006800F01000FC
:103F0000019000BF00BF00BF00BF00BF00200190B4
:103F10000846006840F0010008600846006800F0AC
:103F20000100019000BF00BF00BF102002900020E0
:103F30000390012004900220059002A91448FDF787
:103F40006BFC0820029000200390012004900220C6
:103F5000059002A90E48FDF75FFC042002900020A6
:103F60000390012004900220059002A90848FDF763
:103F700053FC012002900020039002200490059041
:103F800002A90448FDF748FC07B000BD30380240E4
:103F9000001002400000024070B50446002514B134
:103FA00001202B4908702A480078002834D01021BD
:103FB0002848FDF733FD78B108212648FDF72EFD8E
:103FC00050B104212348FDF729FD28B101212248E1
:103FD000FDF724FD01281FD10A20FFF745F9002035
:103FE0001B49087010211B48FDF718FD00B9012579
:103FF00008211848FDF712FD00B9022504211548D3
:10400000FDF70CFD00B9032501211348FDF706FD5E
:1040100001281BD1042519E010210E48FDF7FEFCF4
:10402000012813D108210B48FDF7F8FC01280DD118
:1040300004210848FDF7F2FC012807D101210648B8
:10404000FDF7ECFC10B9012001490870284670BD4D
:1040500024000020001002400000024070B5044619
:10406000002609480588408845430021084603F09A
:10407000A1FA03F04DFC00BF02E004480480761C66
:10408000AE42FAD370BD0000CC0100208000006C6D
:1040900010B5044658488471002C58D1F020564978
:1040A00008804FF4A07048800846808845F210517F
:1040B000884210D14FF430504F4908814FF42850B6
:1040C00048814FF42C5088814FF4F07008804FF4F1
:1040D000487048801AE04848808841F66311884259
:1040E0000DD12C20444908812B2048812A20888129
:1040F0004FF4F07008804FF44870488006E02C20A0
:104100003D4908812A2048812B2088813A488088AF
:1041100045F21031884205D03748808847F29671C1
:10412000884206D14FF4A070334908804FF4F070F4
:1041300048803148808849F60601884258D14FF4BA
:10414000F0702D4908804FF44870488050E04FF4DB
:10415000A07029490880F02048800846808845F2F0
:104160001051884210D14FF43050234908814FF448
:10417000285048814FF42C5088814FF448700880B3
:104180004FF4F070488020E01B48808841F66311AE
:10419000884205D01848808849F6060188420DD12A
:1041A0002C20154908812A2048812B2088814FF432
:1041B000487008804FF4F070488006E02C200E49CB
:1041C00008812A2048812B2088810B48808845F26D
:1041D0001031884205D00848808847F2967188429D
:1041E00006D14FF4F070044908804FF4A070488065
:1041F000002003F0C1F810BDCC0100202DE9FF4FD5
:1042000085B080468946129F002003900290B845F1
:1042100007DB0798B84204DBB94502DB0898B842CF
:1042200002DA09B0BDE8F08F0798A0EB08040898FF
:10423000A0EB0905CDF80480CDF80090002C02DD3C
:104240004FF0010A06E014B94FF0000A02E04FF007
:10425000FF3A6442002D02DD4FF0010B06E015B974
:104260004FF0000B02E04FF0FF3B6D42AC4201DD2E
:10427000264600E02E460020049023E0009A91B2EA
:10428000019A90B23A46139B02F078FD03982044BD
:1042900003900298284402900398B04205DD0398E9
:1042A000801B03900198504401900298B04205DDB4
:1042B0000298801B02900098584400900498401C7B
:1042C00080B20490711C04988842D7DD00BFA8E733
:1042D0002DE9F04706460F4690469A46002445468B
:1042E0000320A0EB480944E07A1B91B2321990B246
:1042F000524600F0B5F83A1B91B2721990B252468C
:1043000000F0AEF83A1991B2721990B2524600F02C
:10431000A7F87A1991B2321990B2524600F0A0F87B
:104320007A1991B2321B90B2524600F099F83A19BC
:1043300091B2721B90B2524600F092F87A1B91B281
:10434000321B90B2524600F08BF83A1B91B2721BAE
:1043500090B2524600F084F8641CB9F1000F03DA01
:10436000A000801D814404E0601B80000A3081446D
:104370006D1EAC42B8DDBDE8F0870000F8B504461C
:104380000D4616461F463EB109480088A04203DB91
:1043900007484088A84200DAF8BDA019401E82B242
:1043A0002B4629462046009702F0BEFC00BFF3E7EB
:1043B000CC0100202DE9FF4F84B081468A460020C1
:1043C000029083460698A0EB09050798A0EB0A0621
:1043D000CDF80490CDF800A0002D01DD012705E007
:1043E0000DB9002702E04FF0FF376D42002E02DDCD
:1043F0004FF0010806E016B94FF0000802E04FF058
:10440000FF387642B54201DD2C4600E034460020FC
:1044100003901EE0009A91B2019A90B2119A00F0B6
:104420001FF8029828440290B3440298A04205DD88
:104430000298001B0290019838440190A34504DDC6
:10444000ABEB040B0098404400900398401C80B2F2
:104450000390611C03988842DCDD08B0BDE8F08F52
:1044600070B505460E4614463146284603F0A2F8BC
:1044700003F04EFA01490C8070BD00008000006C12
:1044800010B5CF2003F038FA002003F029FAC1203C
:1044900003F026FA302003F023FAED2003F02CFA83
:1044A000642003F01DFA032003F01AFA122003F02F
:1044B00017FA812003F014FAE82003F01DFA852092
:1044C00003F00EFA102003F00BFA7A2003F008FA3A
:1044D000CB2003F011FA392003F002FA2C2003F06C
:1044E000FFF9002003F0FCF9342003F0F9F9022071
:1044F00003F0F6F9F72003F0FFF9202003F0F0F9BC
:10450000EA2003F0F9F9002003F0EAF9002003F0B3
:10451000E7F9C02003F0F0F91B2003F0E1F9C12016
:1045200003F0EAF9012003F0DBF9C52003F0E4F918
:10453000302003F0D5F9302003F0D2F9C72003F082
:10454000DBF9B72003F0CCF9362003F0D5F9482089
:1045500003F0C6F93A2003F0CFF9552003F0C0F973
:10456000B12003F0C9F9002003F0BAF91A2003F0D2
:10457000B7F9B62003F0C0F90A2003F0B1F9A22080
:1045800003F0AEF9F22003F0B7F9002003F0A8F928
:10459000262003F0B1F9012003F0A2F9E02003F096
:1045A000ABF90F2003F09CF92A2003F099F9282099
:1045B00003F096F9082003F093F90E2003F090F928
:1045C000082003F08DF9542003F08AF9A92003F0A4
:1045D00087F9432003F084F90A2003F081F90F20C2
:1045E00003F07EF9002003F07BF9002003F078F956
:1045F000002003F075F9002003F072F9E12003F0C8
:104600007BF9002003F06CF9152003F069F91720FD
:1046100003F066F9072003F063F9112003F060F955
:10462000062003F05DF92B2003F05AF9562003F021
:1046300057F93C2003F054F9052003F051F91020FC
:1046400003F04EF90F2003F04BF93F2003F048F937
:104650003F2003F045F90F2003F042F92B2003F02F
:104660004BF9002003F03CF9002003F039F9012058
:1046700003F036F93F2003F033F92A2003F03CF928
:10468000002003F02DF9002003F02AF9002003F0A8
:1046900027F9EF2003F024F9112003F02DF97820F9
:1046A000FEF7E2FD292003F027F910BD10B5FF2029
:1046B00003F022F9FF2003F013F9982003F010F91A
:1046C000062003F00DF9BC2003F016F9012003F0D9
:1046D00007F90F2003F004F9612003F001F9FF202E
:1046E00003F0FEF8012003F0FBF8012003F0F8F8D6
:1046F0000B2003F0F5F8102003F0F2F8372003F058
:10470000EFF8632003F0ECF8FF2003F0E9F8FF2056
:1047100003F0E6F8012003F0E3F8012003F0E0F8ED
:10472000002003F0DDF8002003F0DAF8FF2003F0AA
:10473000D7F8522003F0D4F8012003F0D1F800207C
:1047400003F0CEF8402003F0CBF8BD2003F0D4F8FE
:10475000012003F0C5F8232003F0C2F8452003F040
:10476000BFF8672003F0BCF8012003F0B9F823205C
:1047700003F0B6F8452003F0B3F8672003F0B0F873
:10478000BE2003F0B9F8002003F0AAF8012003F0DE
:10479000A7F8AB2003F0A4F8602003F0A1F82220D2
:1047A00003F09EF8222003F09BF8222003F098F8F3
:1047B000222003F095F8222003F092F8C72003F09E
:1047C0009BF8362003F08CF8ED2003F095F87F205D
:1047D00003F086F80F2003F083F8C02003F08CF874
:1047E0000F2003F07DF80B2003F07AF80A2003F085
:1047F00077F8FC2003F080F8082003F071F8DF2040
:1048000003F07AF8002003F06BF8002003F068F85A
:10481000002003F065F8002003F062F8002003F0A8
:104820005FF8202003F05CF8F32003F065F87420B3
:1048300003F056F8B42003F05FF8002003F050F8BE
:10484000002003F04DF8002003F04AF8F72003F0B1
:1048500053F8822003F044F8B12003F04DF8002013
:1048600003F03EF8132003F03BF8132003F038F870
:10487000F22003F041F8802003F032F8042003F026
:104880002FF8402003F02CF8282003F029F8C1204D
:1048900003F032F8172003F023F8882003F020F803
:1048A000882003F01DF8202003F01AF8E02003F020
:1048B00023F8002003F014F80A2003F011F8122066
:1048C00003F00EF8102003F00BF80E2003F008F8A8
:1048D000202003F005F8CC2003F002F8072002F0B6
:1048E000FFFF062002F0FCFF0B2002F0F9FF0E2074
:1048F00002F0F6FF0F2002F0F3FF0D2002F0F0FFB0
:10490000152002F0EDFF102002F0EAFF002002F077
:10491000E7FFE12002F0F0FF002002F0E1FF0B20B2
:1049200002F0DEFF132002F0DBFF0D2002F0D8FFC3
:104930000E2002F0D5FF1B2002F0D2FF712002F002
:10494000CFFF062002F0CCFF062002F0C9FF0A20AC
:1049500002F0C6FF0F2002F0C3FF0E2002F0C0FFDE
:104960000F2002F0BDFF152002F0BAFF0C2002F06C
:10497000B7FF002002F0B4FF2A2002F0BDFF0020A4
:1049800002F0AEFF002002F0ABFF012002F0A8FF12
:10499000DF2002F0A5FF2B2002F0AEFF002002F086
:1049A0009FFF002002F09CFF032002F099FF1F20D0
:1049B00002F096FF3A2002F09FFF552002F090FF90
:1049C000362002F099FF002002F08AFF112002F049
:1049D00093FF7820FEF748FC292002F08DFF142079
:1049E000FEF742FC2C2002F087FF10BD10B5ED2031
:1049F00002F082FF012002F073FFFE2002F070FF40
:104A0000EE2002F079FFDE2002F06AFF212002F0A2
:104A100067FFF12002F070FF012002F061FFDF204C
:104A200002F06AFF102002F05BFFC42002F064FF76
:104A30008F2002F055FFC62002F05EFF002002F03A
:104A40004FFFE22002F04CFFE22002F049FFE2209B
:104A500002F046FFBF2002F04FFFAA2002F040FF05
:104A6000B02002F049FF0D2002F03AFF002002F0D2
:104A700037FF0D2002F034FF002002F031FF11203B
:104A800002F02EFF002002F02BFF192002F028FF79
:104A9000002002F025FF212002F022FF002002F07A
:104AA0001FFF2D2002F01CFF002002F019FF3D2007
:104AB00002F016FF002002F013FF5D2002F010FF4D
:104AC000002002F00DFF5D2002F00AFF002002F03E
:104AD00007FFB12002F010FF802002F001FF00204C
:104AE00002F0FEFE8B2002F0FBFE002002F0F8FE3A
:104AF000962002F0F5FE002002F0F2FEB22002F055
:104B0000FBFE002002F0ECFE002002F0E9FE022095
:104B100002F0E6FE002002F0E3FE032002F0E0FED9
:104B2000002002F0DDFEB32002F0E6FE002002F0DD
:104B3000D7FE002002F0D4FE002002F0D1FE0020BB
:104B400002F0CEFE002002F0CBFE002002F0C8FEF4
:104B5000002002F0C5FE002002F0C2FE002002F09C
:104B6000BFFE002002F0BCFE002002F0B9FE0020D3
:104B700002F0B6FE002002F0B3FE002002F0B0FE0C
:104B8000002002F0ADFE002002F0AAFE002002F09C
:104B9000A7FE002002F0A4FE002002F0A1FE0020EB
:104BA00002F09EFE002002F09BFE002002F098FE24
:104BB000002002F095FE002002F092FEB42002F0E8
:104BC0009BFE8B2002F08CFE002002F089FE9620D6
:104BD00002F086FE002002F083FEA12002F080FE9B
:104BE000002002F07DFEB52002F086FE022002F0D9
:104BF00077FE002002F074FE032002F071FE002018
:104C000002F06EFE042002F06BFE002002F068FE4F
:104C1000B62002F071FE002002F062FE002002F0D9
:104C20005FFEB72002F068FE002002F059FE00206F
:104C300002F056FE3F2002F053FE002002F050FE2C
:104C40005E2002F04DFE002002F04AFE642002F0D9
:104C500047FE002002F044FE8C2002F041FE0020BE
:104C600002F03EFEAC2002F03BFE002002F038FED7
:104C7000DC2002F035FE002002F032FE702002F04F
:104C80002FFE002002F02CFE902002F029FE0020D2
:104C900002F026FEEB2002F023FE002002F020FEB0
:104CA000DC2002F01DFE002002F01AFEB82002F007
:104CB00023FE002002F014FE002002F011FE00206E
:104CC00002F00EFE002002F00BFE002002F008FEB3
:104CD000002002F005FE002002F002FE002002F09B
:104CE000FFFDBA2002F008FE242002F0F9FD0020AA
:104CF00002F0F6FD002002F0F3FD002002F0F0FDCE
:104D0000C12002F0F9FD202002F0EAFD002002F0AF
:104D1000E7FD542002F0E4FD002002F0E1FDFF2059
:104D200002F0DEFD002002F0DBFDC22002F0E4FD17
:104D30000A2002F0D5FD002002F0D2FD042002F08E
:104D4000CFFD002002F0CCFDC32002F0D5FD3C20B9
:104D500002F0C6FD002002F0C3FD3A2002F0C0FDC3
:104D6000002002F0BDFD392002F0BAFD002002F063
:104D7000B7FD372002F0B4FD002002F0B1FD3C2069
:104D800002F0AEFD002002F0ABFD362002F0A8FDDF
:104D9000002002F0A5FD322002F0A2FD002002F06A
:104DA0009FFD2F2002F09CFD002002F099FD2C2099
:104DB00002F096FD002002F093FD292002F090FD04
:104DC000002002F08DFD262002F08AFD002002F076
:104DD00087FD242002F084FD002002F081FD2420C4
:104DE00002F07EFD002002F07BFD232002F078FD22
:104DF000002002F075FD3C2002F072FD002002F060
:104E00006FFD362002F06CFD002002F069FD3220BB
:104E100002F066FD002002F063FD2F2002F060FD2D
:104E2000002002F05DFD2C2002F05AFD002002F06F
:104E300057FD292002F054FD002002F051FD2620EC
:104E400002F04EFD002002F04BFD242002F048FD50
:104E5000002002F045FD242002F042FD002002F077
:104E60003FFD232002F03CFD002002F039FDC4206C
:104E700002F042FD622002F033FD002002F030FD1E
:104E8000052002F02DFD002002F02AFD842002F012
:104E900027FD002002F024FDF02002F021FD00207B
:104EA00002F01EFD182002F01BFD002002F018FD8C
:104EB000A42002F015FD002002F012FD182002F0DF
:104EC0000FFD002002F00CFD502002F009FD002033
:104ED00002F006FD0C2002F003FD002002F000FDB0
:104EE000172002F0FDFC002002F0FAFC952002F0F1
:104EF000F7FC002002F0F4FCF32002F0F1FC0020AB
:104F000002F0EEFCE62002F0EBFC002002F0E8FCF0
:104F1000C52002F0F1FC322002F0E2FC002002F099
:104F2000DFFC442002F0DCFC002002F0D9FC65200C
:104F300002F0D6FC002002F0D3FC762002F0D0FC78
:104F4000002002F0CDFC882002F0CAFC002002F014
:104F5000C7FCC62002F0D0FC202002F0C1FC0020DB
:104F600002F0BEFC172002F0BBFC002002F0B8FCEF
:104F7000012002F0B5FC002002F0B2FCC72002F0D4
:104F8000BBFC002002F0ACFC002002F0A9FC0020D9
:104F900002F0A6FC002002F0A3FCC82002F0ACFC4A
:104FA000002002F09DFC002002F09AFC002002F09C
:104FB00097FC002002F094FCC92002F09DFC002028
:104FC00002F08EFC002002F08BFC002002F088FC36
:104FD000002002F085FC002002F082FC002002F09C
:104FE0007FFC002002F07CFC002002F079FC002015
:104FF00002F076FC002002F073FC002002F070FC4E
:10500000002002F06DFC002002F06AFC002002F09B
:1050100067FC002002F064FC002002F061FCE0204C
:1050200002F06AFC162002F05BFC002002F058FC43
:105030001C2002F055FC002002F052FC212002F05E
:105040004FFC002002F04CFC362002F049FC00200E
:1050500002F046FC462002F043FC002002F040FC37
:10506000522002F03DFC002002F03AFC642002F0E5
:1050700037FC002002F034FC7A2002F031FC0020E2
:1050800002F02EFC8B2002F02BFC002002F028FC0A
:10509000992002F025FC002002F022FCA82002F05A
:1050A0001FFC002002F01CFCB92002F019FC0020BB
:1050B00002F016FCC42002F013FC002002F010FCE9
:1050C000CA2002F00DFC002002F00AFCD22002F0FF
:1050D00007FC002002F004FCD92002F001FC0020B3
:1050E00002F0FEFBE02002F0FBFB002002F0F8FBE8
:1050F000F32002F0F5FB002002F0F2FBE12002F0C9
:10510000FBFB162002F0ECFB002002F0E9FB1C2068
:1051100002F0E6FB002002F0E3FB222002F0E0FBBD
:10512000002002F0DDFB362002F0DAFB002002F066
:10513000D7FB452002F0D4FB002002F0D1FB522027
:1051400002F0CEFB002002F0CBFB642002F0C8FB93
:10515000002002F0C5FB7A2002F0C2FB002002F022
:10516000BFFB8B2002F0BCFB002002F0B9FB9920B2
:1051700002F0B6FB002002F0B3FBA82002F0B0FB67
:10518000002002F0ADFBB92002F0AAFB002002F0E3
:10519000A7FBC42002F0A4FB002002F0A1FBCA2060
:1051A00002F09EFB002002F09BFBD22002F098FB55
:1051B000002002F095FBD82002F092FB002002F0C4
:1051C0008FFBE02002F08CFB002002F089FBF32033
:1051D00002F086FB002002F083FBE22002F08CFB51
:1051E000052002F07DFB002002F07AFB0B2002F08C
:1051F00077FB002002F074FB1B2002F071FB002003
:1052000002F06EFB342002F06BFB002002F068FB22
:10521000442002F065FB002002F062FB4F2002F008
:105220005FFB002002F05CFB612002F059FB0020D4
:1052300002F056FB792002F053FB002002F050FBF5
:10524000882002F04DFB002002F04AFB972002F07C
:1052500047FB002002F044FBA62002F041FB0020A7
:1052600002F03EFBB72002F03BFB002002F038FBCF
:10527000C22002F035FB002002F032FBC72002F012
:105280002FFB002002F02CFBD12002F029FB002094
:1052900002F026FBD62002F023FB002002F020FBC8
:1052A000DD2002F01DFB002002F01AFBF32002F0CB
:1052B00017FB002002F014FBE32002F01DFB052089
:1052C00002F00EFB002002F00BFB0A2002F008FBAC
:1052D000002002F005FB1C2002F002FB002002F07F
:1052E000FFFA332002F0FCFA002002F0F9FA442021
:1052F00002F0F6FA002002F0F3FA502002F0F0FA81
:10530000002002F0EDFA622002F0EAFA002002F03A
:10531000E7FA782002F0E4FA002002F0E1FA8820AF
:1053200002F0DEFA002002F0DBFA972002F0D8FA51
:10533000002002F0D5FAA62002F0D2FA002002F0F6
:10534000CFFAB72002F0CCFA002002F0C9FAC2204E
:1053500002F0C6FA002002F0C3FAC72002F0C0FA39
:10536000002002F0BDFAD12002F0BAFA002002F0CB
:10537000B7FAD52002F0B4FA002002F0B1FADD202D
:1053800002F0AEFA002002F0ABFAF32002F0A8FA25
:10539000002002F0A5FAE42002F0AEFA012002F0AB
:1053A0009FFA002002F09CFA012002F099FA0020F6
:1053B00002F096FA022002F093FA002002F090FA2E
:1053C0002A2002F08DFA002002F08AFA3C2002F036
:1053D00087FA002002F084FA4B2002F081FA0020C4
:1053E00002F07EFA5D2002F07BFA002002F078FAEB
:1053F000742002F075FA002002F072FA842002F0A4
:105400006FFA002002F06CFA932002F069FA002093
:1054100002F066FAA22002F063FA002002F060FABD
:10542000B32002F05DFA002002F05AFABE2002F02A
:1054300057FA002002F054FAC42002F051FA00207A
:1054400002F04EFACD2002F04BFA002002F048FAAA
:10545000D32002F045FA002002F042FADD2002F0EB
:105460003FFA002002F03CFAF32002F039FA002063
:1054700002F036FAE52002F03FFA002002F030FA9E
:10548000002002F02DFA002002F02AFA002002F09B
:1054900027FA022002F024FA002002F021FA292043
:1054A00002F01EFA002002F01BFA3C2002F018FA6B
:1054B000002002F015FA4B2002F012FA002002F050
:1054C0000FFA5D2002F00CFA002002F009FA7420B5
:1054D00002F006FA002002F003FA842002F000FA3B
:1054E000002002F0FDF9932002F0FAF9002002F00A
:1054F000F7F9A22002F0F4F9002002F0F1F9B3204C
:1055000002F0EEF9002002F0EBF9BE2002F0E8F91B
:10551000002002F0E5F9C42002F0E2F9002002F0D8
:10552000DFF9CD2002F0DCF9002002F0D9F9D32018
:1055300002F0D6F9002002F0D3F9DC2002F0D0F915
:10554000002002F0CDF9F32002F0CAF9002002F0A9
:10555000C7F9E62002F0D0F9112002F0C1F90020CD
:1055600002F0BEF9342002F0BBF9002002F0B8F9D5
:10557000562002F0B5F9002002F0B2F9762002F0D0
:10558000AFF9002002F0ACF9772002F0A9F9002071
:1055900002F0A6F9662002F0A3F9002002F0A0F9BB
:1055A000882002F09DF9002002F09AF9992002F07B
:1055B00097F9002002F094F9BB2002F091F9002045
:1055C00002F08EF9992002F08BF9002002F088F9A0
:1055D000662002F085F9002002F082F9552002F0E1
:1055E0007FF9002002F07CF9552002F079F90020C3
:1055F00002F076F9452002F073F9002002F070F90C
:10560000432002F06DF9002002F06AF9442002F014
:1056100067F9002002F064F9E72002F06DF932200A
:1056200002F05EF9002002F05BF9552002F058F913
:10563000002002F055F9762002F052F9002002F025
:105640004FF9662002F04CF9002002F049F967207A
:1056500002F046F9002002F043F9672002F040F919
:10566000002002F03DF9872002F03AF9002002F014
:1056700037F9992002F034F9002002F031F9BB200B
:1056800002F02EF9002002F02BF9992002F028F9FF
:10569000002002F025F9772002F022F9002002F024
:1056A0001FF9442002F01CF9002002F019F95620DD
:1056B00002F016F9002002F013F9232002F010F98D
:1056C000002002F00DF9332002F00AF9002002F068
:1056D00007F9452002F004F9002002F001F9E82062
:1056E00002F00AF9002002F0FBF8002002F0F8F8BE
:1056F000992002F0F5F8002002F0F2F8872002F07D
:10570000EFF8002002F0ECF8882002F0E9F8002021
:1057100002F0E6F8772002F0E3F8002002F0E0F86B
:10572000662002F0DDF8002002F0DAF8882002F0AE
:10573000D7F8002002F0D4F8AA2002F0D1F8002017
:1057400002F0CEF8BB2002F0CBF8002002F0C8F83F
:10575000992002F0C5F8002002F0C2F8662002F09D
:10576000BFF8002002F0BCF8552002F0B9F8002084
:1057700002F0B6F8552002F0B3F8002002F0B0F8BD
:10578000442002F0ADF8002002F0AAF8442002F014
:10579000A7F8002002F0A4F8552002F0A1F800209C
:1057A00002F09EF8E92002F0A7F8AA2002F098F88B
:1057B000002002F095F8002002F092F8002002F09C
:1057C0008FF8002002F098F8AA2002F089F8CF2084
:1057D00002F092F8002002F083F8002002F080F836
:1057E000002002F07DF8002002F07AF8002002F09C
:1057F00077F8002002F074F8002002F071F8002021
:1058000002F06EF8002002F06BF8002002F068F859
:10581000002002F065F8002002F062F8002002F09B
:105820005FF8002002F05CF8002002F059F8002038
:1058300002F056F8002002F053F8F02002F05CF875
:10584000002002F04DF8502002F04AF8002002F04B
:1058500047F8002002F044F8002002F041F8F3205D
:1058600002F04AF8002002F03BF8F92002F044F878
:10587000062002F035F8102002F032F8292002F05C
:105880002FF8002002F02CF83A2002F035F85520CD
:1058900002F026F8112002F02FF86420FDF7E4FC56
:1058A000292002F029F8352002F026F8002002F025
:1058B00017F8512002F020F8FF2002F011F85320D1
:1058C00002F01AF82C2002F00BF8552002F014F820
:1058D000822002F005F82C2002F00EF810BD10B561
:1058E00055214FF4704002F01DF8AA214FF201003B
:1058F00002F018F852214FF2020002F013F80821CA
:105900004FF2030002F00EF801214FF2040002F002
:1059100009F834214FF4364002F004F834214BF2F8
:10592000016001F0FFFF34214BF2026001F0FAFF49
:105930000D214FF4304001F0F5FF0D214BF2010035
:1059400001F0F0FF0D214BF2020001F0EBFF2421EA
:105950004FF4374001F0E6FF24214BF2017001F0D3
:10596000E1FF24214BF2027001F0DCFF0D214FF426
:10597000314001F0D7FF0D214BF2011001F0D2FFB1
:105980000D214BF2021001F0CDFF24214FF43840DD
:1059900001F0C8FF24214BF6010001F0C3FF2421D0
:1059A0004BF6020001F0BEFF00214FF4324001F03F
:1059B000B9FF24214FF4394001F0B4FF24214BF604
:1059C000011001F0AFFF24214BF6021001F0AAFFF5
:1059D00005214FF4334001F0A5FF05214BF20130C2
:1059E00001F0A0FF05214BF2023001F09BFF3421B2
:1059F0004FF43A4001F096FF34214BF6012001F0BC
:105A000091FF34214BF6022001F08CFF0B214FF463
:105A1000354001F087FF0B214BF2015001F082FF6E
:105A20000B214BF2025001F07DFF00214FF43C406E
:105A300001F078FFA3214BF6014001F073FF002134
:105A40004BF6024001F06EFF00214FF43D4001F0A3
:105A500069FFA3214BF6015001F064FF00214BF6D2
:105A6000025001F05FFF00214FF43E4001F05AFF69
:105A700037214BF6016001F055FF00214FF45140F2
:105A800001F050FF37214DF2011001F04BFF0021D2
:105A90004DF2021001F046FF53214DF2031001F0C8
:105AA00041FF00214DF2041001F03CFF79214DF23D
:105AB000051001F037FF00214DF2061001F032FF12
:105AC00097214DF2071001F02DFF00214DF2081033
:105AD00001F028FFB1214DF2091001F023FF002150
