:020000040800F2
:10000000980700209D010008BF1C0008B71C0008CD
:10001000BB1C00087B090008092200080000000042
:10002000000000000000000000000000C31C0008E9
:100030007F09000800000000C11C0008C51C000862
:10004000C1010008C1010008C1010008C101000888
:10005000C1010008C1010008C1010008C101000878
:10006000C1010008C1010008C1010008C101000868
:10007000C1010008C1010008C1010008C101000858
:10008000C1010008C1010008C1010008C101000848
:10009000C1010008C1010008C1010008C101000838
:1000A000C1010008C1010008C1010008C101000828
:1000B000C1010008C1010008E11C0008C1010008DD
:1000C000C1010008C1010008C1010008C101000808
:1000D000C1010008F9210008C1010008C1010008A0
:1000E000C1010008C1010008C1010008C1010008E8
:1000F000C1010008C1010008C1010008C1010008D8
:10010000C1010008C1010008C1010008C1010008C7
:10011000C1010008C1010008C1010008C1010008B7
:10012000C1010008C1010008C1010008C1010008A7
:10013000C1010008C1010008C1010008C101000897
:10014000C1010008C1010008C1010008C101000887
:10015000C1010008C1010008C1010008C101000877
:10016000C1010008C1010008C1010008C101000867
:10017000C1010008C1010008C10100080000000021
:10018000C1010008C1010008DFF80CD000F0B8FB85
:1001900000480047ED7A00089807002009480168E8
:1001A00041F4700101600848804708480047FEE7B5
:1001B000FEE7FEE7FEE7FEE7FEE7FEE7FEE7FEE717
:1001C000FEE7000088ED00E0CD1C00088901000872
:1001D0002DE9F05F0546002092469B46884606467C
:1001E000814640241BE0284641464746224600F00F
:1001F00034FA53465A46C01A914110D31146184654
:10020000224600F01BFA2D1A67EB01084F462246E2
:100210000120002100F012FA17EB00094E41201EC8
:10022000A4F10104DFDC484631462A464346BDE8D6
:10023000F09FD2B201E000F8012B491EFBD27047BB
:100240000022F6E710B513460A4604461946FFF7A2
:10025000F0FF204610BD2DE9FE4F804681EA0300E5
:10026000C00F0C46009021F0004123F00045B8EB90
:100270000200A94105D24046214690461C460B4645
:10028000024623F00040104347D0270DC7F30A0071
:10029000C3F30A510290401A019040286BDAC3F36D
:1002A000130040F4801B0098924620B10023D2EB4B
:1002B000030A63EB0B0B01985946C0F1400250460C
:1002C00000F0BCF906460D4650465946019A00F02A
:1002D000D4F910EB08006141002487EA115284EA46
:1002E000E7731A4340D0009A62B3019A012A4FEA99
:1002F000075215DC001B61EB02014FF0004202EADD
:100300000752CDE90042001C41F5801132462B46D0
:1003100000F00BFA03B0BDE8F08F40462146F9E744
:10032000001B61EB0201001C41F5801300185B41CA
:100330002018A2F5001747EB030140EAD570B61963
:100340006D4111E06D084FEA360645EAC0754FEA87
:100350000752001B61EB0201001C41F580114908A6
:100360004FEA30000019514132462B4603B0BDE838
:10037000F04F00F0CBB90098012240000023D0EBF1
:10038000020263EBE073009821464FEAE074B8EB99
:10039000000061EB0401E9E783F000435BE781F0D3
:1003A000004158E72DE9FE4F81EA030404F00044C0
:1003B00021F0004100944FF0000B23F0004350EA7D
:1003C00001045ED052EA03045BD0C3F30A54C1F3C4
:1003D0000A552C44A4F2F3340194A0FB0254C1F357
:1003E000130141F48011C3F3130343F4801301FBA1
:1003F000024400FB034E840A970A44EA815447EA08
:100400008357A4FB076802958D0A05FB07854FEA11
:10041000932C04FB0C542705029D4FEA065847EA2B
:100420001637B5EB08056EEB070C870E920E47EA00
:10043000811742EA8312A7FB0201B6EB0B0164EBC2
:1004400000042B0D43EA0C335E1844EB1C50DA46D3
:100450005146E7FB0201C5F313044FEA0B3343EAAD
:1004600014534FEA0432019C43EA0603A4F10C043E
:100470000294009CCDE900B400F057F903B0BDE848
:10048000F08F00200146F9E72DE9F04D81EA0304E1
:1004900004F0004B21F0004514464FF0000A23F011
:1004A000004150EA050220D054EA01021DD0C5F3F4
:1004B0000A570246C5F31303C1F31300C1F30A56EA
:1004C00040F4801543F48013A7EB0608101BD646B2
:1004D00008F2FD3873EB050002D308F1010801E0D2
:1004E00092185B41B8F1000F03DA00200146BDE825
:1004F000F08D00204FF48011064684460EE0171B55
:1005000073EB050705D3121B63EB050306434CEAA7
:10051000010C49084FEA300092185B4150EA01078C
:10052000EDD152EA030012D082EA040083EA050109
:10053000084305D0101BAB4106D20122002306E080
:1005400000224FF0004302E06FF0010253101AEB5B
:1005500006004CEB085110EB0A0041EB0B01BDE823
:10056000F04D00F0D3B80EB540F2334102910021B6
:10057000CDE900110A460B4600F0D7F803B000BDE4
:10058000C1F30A5210B5C1F3130140F2FF3341F435
:1005900080119A4201DA002010BD40F233439A42A2
:1005A000A2F2334203DC524200F057F810BD9040F3
:1005B00010BD00F0004230F000400AD0C10D01F53E
:1005C0006071C0F3160042EA0151C20840071143AE
:1005D000704700200146704701F0004330B421F01D
:1005E000004150EA010206D00A0DA2F56072C1F383
:1005F0001301002A02DC30BC00207047440F44EA9B
:10060000C104C100E01830BC00EBC25000F047B894
:1006100030B50B46014600202022012409E021FAD2
:1006200002F59D4205D303FA02F5491B04FA02F5CF
:100630002844151EA2F10102F1DC30BD202A04DBA2
:10064000203A00FA02F1002070479140C2F12003E5
:1006500020FA03F3194390407047202A04DB203A24
:1006600021FA02F00021704721FA02F3D040C2F1D2
:1006700020029140084319467047202A06DBCB1719
:10068000203A41FA02F043EAE07306E041FA02F34D
:10069000D040C2F12002914008431946704700291A
:1006A000A8BF7047401C490008BF20F001007047F8
:1006B00010B4B0FA80FC00FA0CF050EA010404BF58
:1006C00010BC704749B1CCF1200421FA04F411FAAE
:1006D0000CF118BF012121430843A3EB0C01CB1DF2
:1006E0004FEA00614FEA102042BF002010BC704763
:1006F00000EBC35010440029A4BF10BC7047401C3D
:10070000490008BF20F0010010BC704710B5141E4E
:1007100073F1000408DA401C41F1000192185B41BA
:100720001A4301D120F0010010BD2DE9F04D924691
:100730009B4611B1B1FA81F202E0B0FA80F22032A8
:100740009046FFF77BFF04460F4640EA0A0041EA65
:100750000B0153465A46084313D0114653EA010091
:1007600019D0C8F140025046FFF777FF05460E4604
:10077000504659464246FFF761FF084305D0012025
:1007800004E020463946BDE8F08D0020054346EAE6
:10079000E0762C4337430A986305E40AA0EB08008F
:1007A0000022FD0A44EA47540A3002D500200146DF
:1007B000E9E7010510196941DDE9084500196941BA
:1007C000BDE8F04DA2E72DE9F04D00231A461B1AB3
:1007D0008A4103DB00200146BDE8F08DC1F30A52D7
:1007E000C1F3130141F480154FF0000BD10702D182
:1007F00000186D41521E0027044640F2FF11384692
:1008000001EB620A3E468046024600204FF480110A
:10081000FFF723FFC2197141BB1846EB0100B4EB8F
:10082000030C75EB000C04D3E41A65EB00051746C6
:100830000E46241908F101006D4180463428E3DD9D
:10084000F91946EB0600091BA84103D24FF0FF320D
:10085000134601E0002213461BEB070046EB0A514A
:10086000BDE8F04DFFF752BFC1F30A52C1F31301C7
:1008700040F2FF3341F480119A4202DA002001462F
:10088000704740F233439A42A2F2334202DC5242B2
:10089000FFF7E3BEFFF7D2BE30B5041E71F10004CE
:1008A00004DB4FF00044404264EB0101141E73F17D
:1008B000000405DB1C464FF00043524263EB040387
:1008C000994208BF904230BD002801DBC0F10040D2
:1008D000002901DBC1F10041814202D24FF000400A
:1008E00004E04FF0005001D14FF0C0404FEA2062C9
:1008F000EFF3008162F31F6181F30088704700000D
:10090000064C074D06E0E06840F0010394E807005C
:1009100098471034AC42F6D3FFF73AFC9CC9000864
:10092000BCC9000870B58C1810F8015B15F00703FE
:1009300001D110F8013B2A1106D110F8012B03E078
:1009400010F8016B01F8016B5B1EF9D12B0705D480
:100950000023521E0DD401F8013BFAE710F8013BC9
:10096000CB1A921C03E013F8015B01F8015B521EE5
:10097000F9D5A142D8D3002070BD00BFFEE7704773
:1009800070B504461D460023B5F5804F13D154F8C9
:1009900022300C480340D1E9000640EA06108E6878
:1009A00040EA06208E8940EA06408E6930430343C0
:1009B00044F8223003E06FF0704044F82200002039
:1009C00070BD00000000F0CF10B50346002208689B
:1009D00053F8202012480240D1E901042043CC689A
:1009E00020430C6920434C6920438C692043CC6927
:1009F00020430C6A20434C6A20438C6A2043CC6A13
:100A00002043CC6B20430C6B2043024388680828AA
:100A100001D142F04002086843F82020002010BDB8
:100A20008000F0FF30B503460024501C53F82040EE
:100A300004F04044D1E9000540EA05108D6840EA21
:100A400005208D8940EA0545088A401E45EA005583
:100A5000087D801E45EA00608D6928430443501CD0
:100A600043F82040002030BD70B50446A56D00F06D
:100A700085F9064694F83500022808D08020606584
:100A800000BF002084F8340000BF012070BD206842
:100A9000006820F01600216808602068406920F096
:100AA000800021684861206C08B9A06C28B12068DA
:100AB000006820F00800216808602068006820F0C5
:100AC0000100216808600FE000F058F9801B05283C
:100AD0000AD92020606500BF002084F8340000BFE0
:100AE000032084F83500D1E72068006800F0010099
:100AF0000028E9D194F85C103F208840A86000BF2E
:100B0000002084F8340000BF012084F83500002064
:100B1000BCE7014691F83500022803D080204865E3
:100B200001207047052081F835000868006820F032
:100B300001000A6810600020F3E70000F8B50246E3
:100B40000B460025002400200021DEE0012606FAE5
:100B500001F51E6806EA0504AC4275D11E7906F05F
:100B60000306012E04D01E7906F00306022E13D1CF
:100B700090684F000326BE40B0434F00DE68BE4081
:100B800030439060506801268E40B0431E79C6F312
:100B900000168E40304350601E7906F00306032E87
:100BA00009D0D0684F000326BE40B0434F009E6876
:100BB000BE403043D0601E7906F00306022E13D1EA
:100BC000CF0802F1200656F827004E07F70E0F2631
:100BD000BE40B0434F07FF0E1E69BE403043CF08F2
:100BE00002F1200646F8270010684F000326BE4099
:100BF000B0431E7906F003064F00BE40304310603C
:100C00005E6806F08056B6F1805F7DD100BF002699
:100C10000096404E366846F480463E4F3E603E4663
:100C2000366806F48046009600BF00BF3A4E8F0833
:100C300056F827008E07370F0F26BE40B043374EB9
:100C4000B24202D1002624E05EE0354EB24201D12C
:100C500001261EE0334EB24201D1022619E0324E87
:100C6000B24201D1032614E0304EB24201D1042633
:100C70000FE02F4EB24201D105260AE02D4EB242BE
:100C800001D1062605E02C4EB24201D1072600E034
:100C900008268F073F0FBE4030431F4E8F0846F88F
:100CA0002700264E3068A0435E6806F48036B6F50D
:100CB000803F00D12043214E3060361D3068A04374
:100CC0005E6806F40036B6F5003F00D120431B4EA7
:100CD000361D3060361D3068A0435E6806F480160D
:100CE000B6F5801F00D12043144E08363060361D03
:100CF0003068A0435E6806F40016B6F5001F00D108
:100D000020430E4E0C363060491C1029FFF41EAFF4
:100D1000F8BD00004438024008380140000002409D
:100D20000004024000080240000C02400010024093
:100D30000014024000180240001C0240003C014028
:100D4000024613690B400BB1012000E00020704700
:100D500010B5426921EA020302EA010443EA0443AE
:100D6000836110BD0AB1816101E00B0483617047AA
:100D700001480068000C7047002004E0014800684A
:100D800070470000100000200348006803490978FC
:100D90000844014908607047100000201800002036
:100DA00010B50A48006840F4007008490860084619
:100DB000006840F480600860052000F07FF80F2094
:100DC00000F006F800F02AF8002010BD003C0240B8
:100DD00070B504460E4800784FF47A71B1FBF0F01C
:100DE0000C490968B1FBF0F5284600F087FC08B112
:100DF000012070BD102C07D200222146501E00F0A9
:100E00001EF80548046001E00120F2E70020F0E749
:100E10001800002000000020140000207047014648
:100E20000846002809DB00F01F0301229A4043090D
:100E30009B0003F1E023C3F8002100BF70472DE9B8
:100E4000F05F80460D461646002701F017FA074668
:100E500039462A46334601F00700C0F1070ABAF1C5
:100E6000040F02D94FF0040A01E0C0F1070AD1468D
:100E700000F1040ABAF1070F02D24FF0000A01E0B4
:100E8000A0F1030AD4464FF0010A0AFA09FAAAF1BE
:100E9000010A0AEA020A0AFA0CFA4FF0010B0BFAED
:100EA0000CFBABF1010B0BEA030B4AEA0B042146E6
:100EB000404601F0EBF9BDE8F09F000000BF00F0F4
:100EC0000702064B19684FF6FF031940044B0B430A
:100ED00043EA0221014B196000BF70470CED00E0AE
:100EE0000000FA0570B504460D460CB9012070BD2E
:100EF0005848006800F00700A84209D255490D7013
:100F00000846006800F00700A84201D00120EEE783
:100F1000207800F0020002281DD1207800F00400A3
:100F2000042805D14C48006840F4E0504A49086064
:100F3000207800F00800082805D14748006840F4F0
:100F40006040454908604448006820F0F000A1680E
:100F5000084341490860207800F00100A8B36068A8
:100F6000012807D13C4808380068C0F34040B8B9B0
:100F70000120BCE76068022802D06068032807D11E
:100F8000354808380068C0F3406048B90120AEE732
:100F9000314808380068C0F3400008B90120A6E7CE
:100FA0002D48006820F00300616808432A49086062
:100FB000FFF7E4FE064609E0FFF7E0FE801B41F282
:100FC0008831884202D9032091E707E0224800686F
:100FD00000F00C006168B0EB810FEDD11D48006896
:100FE00000F00700A84209D91A490D7008460068A8
:100FF00000F00700A84201D0012078E7207800F037
:101000000400042807D11448006820F4E050E16887
:10101000084311490860207800F00800082808D12A
:101020000D48006820F46040216940EAC1000A4987
:10103000086000F03FF808490968C1F30311074A46
:10104000515CC8400649086006480068FFF7C0FECA
:1010500000204CE7003C024008380240949500080C
:1010600000000020140000200148006870470000C4
:101070000000002000B5FFF7F7FF04490968C1F33D
:101080008221034A515CC84000BD0000083802407C
:10109000A495000800B5FFF7E7FF04490968C1F30C
:1010A0004231034A515CC84000BD0000083802408C
:1010B000A49500082DE9F047002400250026A1464C
:1010C0002548006800F00C0020B1042805D008284D
:1010D0003AD105E0DFF8849039E0DFF8849036E01B
:1010E0001D48001F006800F03F041B48001F0068F7
:1010F00000F4800078B11A481749091F0968C1F344
:101100008811A0FB01700146224600233846FFF7F4
:101110005FF805460EE011480F49091F0968C1F341
:101120008811A0FB01700146224600233846FFF7D4
:101130004FF805460848001F0068C0F30140401CF6
:101140004600B5FBF6F902E0DFF8109000BF00BFE3
:101150004846BDE8F0870000083802400024F4004B
:1011600000127A00F8B504460CB90120F8BD2078C9
:1011700000F00100002874D0F948006800F00C006D
:1011800004280DD0F648006800F00C00082813D1A0
:10119000F348001F006800F48000B0F5800F0BD109
:1011A000EF4808380068C0F34040002859D0606814
:1011B000002856D10120D9E700BF6068B0F5803F14
:1011C00008D1E7480838006840F48030E44908391D
:1011D00008601EE06068B0F5A02F0DD1E048083827
:1011E000006840F48020DE4908390860084600683D
:1011F00040F4803008600CE0D9480838006820F4DA
:101200008030D749083908600846006820F48020FB
:10121000086000BF606890B1FFF7B0FD054606E0CA
:10122000FFF7ACFD401B642801D903209EE7CC48A2
:1012300008380068C0F340400028F1D011E0FFF703
:101240009DFD054606E0FFF799FD401B642801D986
:1012500003208BE7C24808380068C0F340400028EC
:10126000F1D1207800F0020002285FD1BC4800686C
:1012700000F00C0058B1BA48006800F00C000828D3
:101280001CD1B748001F006800F48000B0B9B44812
:1012900008380068C0F3400020B1E068012801D0A0
:1012A000012063E7AE480838006820F0F8002169A3
:1012B00040EAC100AA490839086037E0E06800B395
:1012C0000120A8490860FFF759FD054606E0FFF731
:1012D00055FD401B022801D9032047E7A0480838E4
:1012E0000068C0F340000028F1D09D48083800682D
:1012F00020F0F800216940EAC100994908390860E6
:1013000014E0002097490860FFF738FD054606E025
:10131000FFF734FD401B022801D9032026E790483F
:1013200008380068C0F340000028F1D1207800F0B0
:10133000080008282CD16069A8B101208A490860FA
:10134000FFF71CFD054606E0FFF718FD401B0228CD
:1013500001D903200AE782486C300068C0F34000DE
:101360000028F1D014E000207F490860FFF706FD57
:10137000054606E0FFF702FD401B022801D90320C5
:10138000F4E677486C300068C0F340000028F1D1E3
:10139000207800F00400042870D10027704838300D
:1013A000006800F0805090B900BF002000906C48A9
:1013B0003830006840F0805069493831086008468C
:1013C000006800F08050009000BF00BF0127674810
:1013D000006800F48070B0B96448006840F4807020
:1013E00062490860FFF7CAFC054606E0FFF7C6FC45
:1013F000401B022801D90320B8E65C48006800F4CD
:1014000080700028F2D000BFA068012808D154489D
:101410006830006840F001005149683108601DE003
:10142000A06805280DD14E486830006840F00400DF
:101430004B49683108600846006840F001000860C8
:101440000CE047486830006820F0010044496831EA
:1014500008600846006820F00400086000BFA0682B
:10146000A8B1FFF78BFC054609E0FFF787FC401B9E
:1014700041F28831884202D9032077E626E03848D5
:1014800068300068C0F340000028EED013E0FFF79A
:1014900075FC054608E0FFF771FC401B41F28831FE
:1014A000884201D9032061E62D4868300068C0F306
:1014B00040000028EFD1012F07D1294838300068BB
:1014C00020F0805026493831086000BFA06900280C
:1014D00045D02348006800F00C0008285DD0A069C2
:1014E000022845D100201F490866FFF747FC054642
:1014F00006E0FFF743FC401B022801D9032035E634
:10150000174808380068C0F340600028F1D1D4E9DA
:1015100007010843616A40EA81110122A06AC2EB17
:10152000500041EA00412C20005D41EA00600C4976
:10153000091F086001200B490866FFF71FFC0546DC
:1015400006E0FFF71BFC401B022801D903200DE633
:10155000034808380068C0F340600028F1D049E033
:101560000838024000004742800E474200700040A9
:10157000002021490866FFF701FC054606E0FFF759
:10158000FDFB401B022801D90320EFE51B48006842
:10159000C0F340600028F2D12CE0A069012800D1FE
:1015A000E4E51648001D0668A069012820D006F46D
:1015B0008001E06981421BD106F03F01206A81422F
:1015C00016D147F6C0703040616AB0EB811F0FD171
:1015D00006F440310122A06AC2EB5000B1EB004F8B
:1015E00006D106F070612C20005DB1EB006F01D0D8
:1015F0000120BBE50020B9E5000047420038024069
:1016000070B504460E4615460CB9012070BD94F81D
:10161000490028B9002084F84800204600F01CF852
:1016200004F108012068FFF7CFF93146A26820686D
:10163000FFF7F8F92946236BD4E90102FFF7A0F977
:10164000A168206850F8210040F00100A2682168DC
:1016500041F822000020D9E710B586B0044600BF4B
:10166000002000902248006840F0010020490860F6
:101670000846006800F00100009000BF00BF00BFF6
:10168000002000901A480838006840F00800184907
:10169000083908600846006800F00800009000BFA4
:1016A00000BF00BF002000900846006840F0100016
:1016B00008600846006800F01000009000BF00BFFE
:1016C0004CF203700190022002900120039002204E
:1016D00004900C20059001A90648FFF72FFA4FF659
:1016E0008070019001A90448FFF728FA06B010BDE8
:1016F00038380240000C02400010024070B5044629
:101700002546681EB0F1807F01D301200FE0681EDE
:101710004FF0E02148610F214FF0FF3000F0B6FD9F
:1017200000204FF0E021886107200861002070BD93
:1017300010B504460CB9012010BD94F83D0028B93D
:10174000002084F83C00204600F025F8022084F8B0
:101750003D00211D206800F0E5FA012084F84600D4
:1017600000BF84F83E0001213F2001554020015573
:101770004120015500BF00BF012084F842004320F2
:101780000155442001554520015500BF012084F832
:101790003D000020D0E77047014691F83D00012848
:1017A00001D001207047022081F83D000868C06820
:1017B00040F001000B68D8601A4B086898421BD0B3
:1017C0000868B0F1804F17D0174B0868984213D0C3
:1017D000164B086898420FD0154B086898420BD0FA
:1017E000144B0868984207D0134B0868984203D0FE
:1017F000124B086898420CD10868806800F0070214
:10180000062A0CD00868006840F001000B681860D8
:1018100005E00868006840F001000B6818600020CF
:10182000C0E7000000000140000400400008004044
:10183000000C00400004014000400140001800403E
:10184000704770472DE9F84F044620680568206806
:10185000C668206847694FF00009CA4605F00F09BD
:10186000B9F1000F0AD105F0200038B106F02000D0
:1018700020B1204600F0F7FABDE8F88FB9F1000F6B
:1018800072D007F0010018B906F4907000286BD0F0
:1018900005F0010030B106F4807018B1206C40F002
:1018A0000100206405F0040030B107F0010018B118
:1018B000206C40F00200206405F0020030B107F017
:1018C000010018B1206C40F00400206405F008000D
:1018D00048B106F0200010B907F0010018B1206CE3
:1018E00040F008002064206C70B305F0200028B19F
:1018F00006F0200010B1204600F0B5FA20684069DB
:10190000C0F3801A206C00F0080010B9BAF1000F83
:1019100023D0204600F07CFA2068406900F04000A7
:10192000402816D12068406920F0400021684861B5
:10193000A06B50B15648A16B0865A06BFFF7E9F8A2
:1019400010B1A06B016D88470CE02046FFF779FFCE
:1019500008E02046FFF775FF04E02046FFF771FF1F
:101960000020206488E7FFE7206B012879D105F08B
:101970001000002875D006F01000002871D000BFBC
:101980000020009020680068009020684068009067
:1019900000BF00BF2068406900F04000402839D1F6
:1019A000A06B006840681FFA80F8B8F1000F30D0D3
:1019B000A08D40452DDDA4F82E80A06BC069B0F548
:1019C000807F1FD02068C06820F480702168C860C4
:1019D0002068406920F00100216848612068406962
:1019E00020F0400021684861202084F83E0000205B
:1019F00020632068C06820F010002168C860A06BD8
:101A0000FFF732F8A08DE28D801A81B22046FFF7F1
:101A100017FF31E7A08DE18D401A1FFA80F8E08DA5
:101A2000E8B1B8F1000F1AD02068C06820F49070B7
:101A30002168C8602068406920F001002168486181
:101A4000202084F83E00002020632068C06820F039
:101A500010002168C86041462046FFF7F1FE0BE701
:101A6000FFE705F0800030B106F0800018B1204695
:101A700000F091FB00E705F0400030B106F04000B7
:101A800018B1204600F0DFF9F6E600BFF4E60000EA
:101A9000FD1D000810B504460CB9012010BDA06959
:101AA00000B100E000BF94F83D0028B9002084F8A0
:101AB0003C00204600F028F8242084F83D002068EF
:101AC000C06820F400502168C860204600F02AFA5F
:101AD0002068006920F4904021680861206840690E
:101AE00020F02A00216848612068C06840F4005056
:101AF0002168C86000202064202084F83D0084F81C
:101B00003E000020CAE7000010B586B004462E490A
:101B10002068884255D100BF00BF002000902B48AC
:101B2000006840F01000294908600846006800F08D
:101B30001000009000BF00BF00BF00BF00BF00202A
:101B4000009022481438006840F001001F49143901
:101B500008600846006800F00100009000BF00BF68
:101B600000BF00BF00BF002000900846006840F0A2
:101B7000010008600846006800F00100009000BF06
:101B800000BF00BF48150190022002900120039081
:101B9000022004900720059001A90D48FEF7CEFF12
:101BA0004FF4806001900720059001A90848FEF7D6
:101BB000C5FF2520FFF733F9032211462520FFF743
:101BC0003EF906B010BD000000100140443802404C
:101BD0000000024070B504460D46164694F83E00DB
:101BE000202816D105B10EB9012070BD00BF94F8B0
:101BF0003C00012801D10220F7E7012084F83C00D5
:101C000000BF0020206332462946204600F0A0FA9B
:101C1000EBE70220E9E7000010B504462049206800
:101C200088423BD11F48008800F4004088BB1D4813
:101C3000008800F4804070B11B4800780A2803D067
:101C400000201849088024E01648008840F400402D
:101C5000144908801DE0144800780D2806D1114869
:101C6000008840F480400F49088012E00E48007858
:101C70000C490988C1F30D010C4A505409480088E9
:101C8000401C0849088008460088C72801DD00205C
:101C90000880012204490648FFF79CFF10BD0000A0
:101CA000001001400C0000200E000020D401002094
:101CB0009C020020704700BFFEE700BFFEE77047B0
:101CC0007047704710B5FFF75FF810BD0348006814
:101CD00040F47000014908607047000088ED00E0A2
:101CE00010B50E480068C06800F0010078B10C49DA
:101CF00008698047002009490968486200BF6420DC
:101D000006490968C86264210448C16000BF6FF0D9
:101D1000010002490968086110BD00004C03002061
:101D2000DC00002010B50268294B98420ED0B0F1BB
:101D3000804F0BD0274B984208D0274B984205D0B4
:101D4000264B984202D0264B984203D122F07002D3
:101D50004B681A431E4B984220D0B0F1804F1DD0E3
:101D60001C4B98421AD01C4B984217D01B4B9842E0
:101D700014D01B4B984211D01A4B98420ED01A4BDC
:101D800098420BD0194B984208D0194B984205D075
:101D9000184B984202D0184B984203D122F440725B
:101DA000CB681A4322F080034C6943EA04020260C4
:101DB0008B68C3620B688362054B984202D0084B64
:101DC000984201D10B6903630123436110BD0000F8
:101DD000000001400004004000080040000C0040EA
:101DE000000401400040014000440140004801401F
:101DF00000180040001C00400020004070B505465F
:101E0000AC6B0020E085E0842046FFF71AFD70BD32
:101E10000168C96821F490710268D160016849695C
:101E200021F0010102685161016B012905D10168AE
:101E3000C96821F010010268D160202180F83E10AD
:101E400000210163704710B504462068C06820F087
:101E500040002168C860202084F83D002046FFF73C
:101E600029FF002010BD70B5044694F83E002228DA
:101E700056D1A068B0F5805F0CD1206950B900251B
:101E8000A66A20684068C0F308003080A06A801C01
:101E9000A06215E0A56A0026A068B0F5805F03D0B7
:101EA000A06828B9206918B920684068287004E043
:101EB0002068406800F07F002870A06A401CA06283
:101EC000E08D401E80B2E08540BB2068C06820F0F5
:101ED00020002168C8602068C06820F480702168F4
:101EE000C8602068406920F0010021684861202016
:101EF00084F83E00206B01280AD12068C06820F0D9
:101F000010002168C860A18D2046FFF799FC02E00F
:101F10002046FFF781FE0020206370BD0020FCE713
:101F20000220FAE72DE9F84F04462068006920F402
:101F30004050E1680843216808612169A0680843AE
:101F400061690843E169084300902068C06849F26C
:101F50000C618843009908432168C8602068406983
:101F600020F44070A16908432168486176492068DF
:101F7000884203D075492068884203D1FFF78AF868
:101F8000814602E0FFF776F88146E069B0F5004F40
:101F90006CD102206168A0FB015003461920A9FB07
:101FA000007001462A463846FEF712F96421B0FB5C
:101FB000F1F04FEA001A02206168A0FB01510B46C4
:101FC0001920A9FB00712A463846FEF701F983461D
:101FD00002206168A0FB015003461920A9FB007193
:101FE0002A463846FEF7F4F86421B0FBF1F000EB26
:101FF000C00101EB0010ABEB8000322101EBC0000F
:102000006421B0FBF1F000F0F8000AEB400A022076
:102010006168A0FB015003461920A9FB007001462E
:102020002A463846FEF7D4F8834602206168A0FBB2
:10203000015003461920A9FB00712A463846FEF7D5
:10204000C7F86421B0FBF1F000EBC00101EB001018
:10205000ABEB8000322101EBC0006421B0FBF1F05A
:1020600000F007005044216888606AE0042061683D
:10207000A0FB015003461920A9FB007001462A4627
:102080003846FEF7A5F8824604206168A0FB01509F
:1020900003461920A9FB007001462A463846FEF780
:1020A00097F86421B0FBF1F000EBC00101EB0010E8
:1020B000AAEB8000322101EB00106421B0FBF1F0AB
:1020C00000F0F00A04206168A0FB017003461920AB
:1020D000A9FB00513A462846FEF77AF86421B0FB86
:1020E000F1F00AEB001A04206168A0FB01510B46D5
:1020F0001920A9FB00712A463846FEF769F8834685
:1021000004206168A0FB015003461920A9FB007060
:1021100001462A463846FEF75BF86421B0FBF1F031
:1021200000EBC00101EB0010ABEB8000322101EBB2
:1021300000106421B0FBF1F000F00F005044216862
:102140008860BDE8F88F00000010014000140140D5
:1021500010B5034699629A85DA850020186422201A
:1021600083F83E0000BF002083F83C0000BF1868E1
:10217000C06840F480701C68E0601868406940F0F6
:1021800001001C6860611868C06840F020001C688D
:10219000E060002010BD014691F83D00212828D1C3
:1021A0008868B0F5805F0BD1086948B90A6A108861
:1021B000C0F308000B685860086A801C086205E0DC
:1021C0000B6A581C086218780B685860C88C401E4F
:1021D00080B2C88458B90868C06820F080000B68D5
:1021E000D8600868C06840F040000B68D8600020E4
:1021F00070470220FCE7000010B50248FFF722FB01
:1022000010BD00009C02002000BFFEE70FB4054B8C
:1022100010B503A9044A029800F080FB10BC5DF8D9
:1022200014FB0000153C0008080000200FB4084B08
:1022300010B504A902AA039800F070FB044602A995
:10224000002000F002FF204610BC5DF814FB0000E7
:102250004B3000084100080218BF04200A0E18BFC6
:1022600040F001004FF07F4232EA010108BF40F028
:102270000200012808BF05207047000002480068DE
:10228000C0F30220704700000CED00E010B50028FC
:1022900004DB0A07130E054A135406E00A07140E5E
:1022A000034A00F00F031B1FD45410BD00E400E0EC
:1022B00018ED00E010B54FF00E402DED028BB0EEA2
:1022C000408A18EE104A00EB4400B0F1506F4AD833
:1022D0004FF0FC40B0EB440F22D2B0EEC80AF7EE4C
:1022E000000A30EEC00AF6EE000A60EE208A18EE10
:1022F000900A05F084FF01EE100A14F0004F1DBF94
:10230000DFED2D0A9FED2D0AB1EE411ADFED2C0A0B
:1023100008BF9FED2C0AF8EE001A21EE218A05E095
:10232000DFED290A68EE088AB0EE600A9FED271AF1
:10233000DFED271A30EE080A48EE811A9FED251AC4
:1023400008EEA11ADFED241A48EE811A9FED231A38
:1023500008EEA11A68EE281ABDEC028B01EE810A84
:1023600030EE200A10BD4FF0E440B0EB440F0CD922
:1023700018EE100AFFF76EFF042808BF00F0EEF910
:10238000B0EE480ABDEC028B10BD4FF07F40B0EBC1
:10239000440F07D2B0EE480ABDEC028BBDE81040F6
:1023A00000F0CEB9012000F0F1F9BDEC028BBDE8E0
:1023B000104000F0CBB900000000C9BF22AAFDB94F
:1023C0000000C93F22AAFD390000000024FE1C3D88
:1023D000C78AD83C1E67383D1B93993DAFAA2A3E59
:1023E00010EE100A10B510EE901A4FF0684202EB92
:1023F00040032DED028BB3F1654F3CBF02EB410270
:10240000B2F1654F7CD200BFC0F3C753C1F3C752CE
:102410009A1A1B2A09DD10F0004F14BF9FED6E0AB7
:102420009FED6E0ABDEC028B10BD12F11A0F1BDA84
:1024300011F0004F09D010F0004F0CBF9FED680A5B
:102440009FED680ABDEC028B10BD80EE208A18EE6D
:10245000100AFFF7FFFE042808BF00F07FF9B0EE76
:10246000480ABDEC028B10BD4200B2EB410F37D9D8
:1024700010F0004F19BFDFED5C1A9FED5C1ADFED25
:102480005C1A9FED5C1AB0EE602A0A46F1EE400A33
:1024900080F00041B0EE420A10460A1A5200B2F132
:1024A000807F34D2484010F0004FDFED532A9FED7B
:1024B000533A1DBFBEEE002A71EEE21A31EE431A06
:1024C000B6EE002A04BF71EEA21A31EE031AF0EE46
:1024D000402A42EE602A40EE020A82EEA02A18E06C
:1024E00011F0004F04BF9FED461AF0EE411AD4D010
:1024F00010F0004F1CBFDFED431A9FED431A00E0C0
:1025000026E004BFDFED411A9FED411AC5E780EEDA
:10251000202A22EE020ADFED3F0ADFED3F2ABDEC62
:10252000028B40EE202ADFED3D0A40EE220ADFED6D
:102530003C2A40EE202ADFED3B0A40EE220A22EE42
:10254000000A00EE201A31EE020A30EE210A10BD18
:102550004FF07F42B2EB400F28BFB2EB410F05D2E4
:10256000BDEC028BBDE8104000F0EDB840EA01037D
:102570005B0008BF41F0FF410BD0B2EB400F08BF3A
:10258000B2EB410F08D120F0804000EE100A21F09C
:10259000804100EE901A37E7B2EB400F12BF5FEABE
:1025A000410240F0FF4001F000413FF42DAF4A00EE
:1025B00092EA40033FF528AF002AACBF9FED1A1AFC
:1025C0009FED1A1A20EE010A60EE810A10EE100A41
:1025D00010EE901A18E70000DB0FC9BFDB0FC93FF0
:1025E000DB0F4940DB0F49C00000C9BF22AAFDB97B
:1025F0000000C93F22AAFD390060ED3EC30ACE3774
:1026000000000000000049C022AA7DBA0000494035
:1026100022AA7D3A2DAD65BD8FB8D53D0FB511BE4F
:1026200061C84C3EA8AAAABE0000804F0000802FBF
:102630002DED020B019820F0004001909DED000B64
:1026400002B0704710B52DED028BB0EE608AF0EE4F
:10265000408A18EE101A18EE900AFEF735F900F0CD
:102660007040B0F1005F0CD018EE100A20F000406E
:10267000C0F1FF40C00F02BFB0EE480ABDEC028BB4
:1026800010BDB0EE680ABDEC028B10BD00B52DED9B
:10269000048BB0EE409AF0EE609A83B051EC190BC7
:1026A000FEF791F841EC180B18EE100A18EE901A8C
:1026B0008DED008B002818BF0120084320F000405A
:1026C000C0F17F6000F1E040C00F14D019EE101A85
:1026D00019EE900A8DED009B002918BF01210843D7
:1026E00020F00040C0F17F6000F1E040C00F04BF67
:1026F000012000F04BF8B0EE480A03B0F0EE680A93
:10270000BDEC048B00BD10B52DED028BB1EEC08A7F
:1027100018EE100A20F00040C0F1FF40C00F0AD0B0
:1027200010EE100A20F00040C0F1FF40C00F04BFBF
:10273000012000F02BF8B0EE480ABDEC028B10BD72
:1027400030EE000A704730EE200A7047DFED020AD3
:1027500080EEA00A70470000000000009FED020A12
:1027600020EE000A704700000000001002E008C8D8
:10277000121F08C1002AFAD170477047002001E0FB
:1027800001C1121F002AFBD17047000001490860F7
:1027900070470000D00100202DE9FF5F82B00021CA
:1027A000DDE90430020DDDF840B0034318D044F6F3
:1027B0001050A2F2FF3242431514119801281FD085
:1027C000A5EB0B00401C5FEA000A4FF000064E4FDD
:1027D000DFF83891B046504615D5CAF1000413E031
:1027E000119801244AA3012801D16FEA0B01029834
:1027F000119AC0E90031C0E9024206B0BDE8F09F7D
:10280000CBF10000DFE704460021404A491842EBC3
:102810000450CDE9001012E0E00707D032463B46F5
:1028200040464946FDF7BEFD8046894632463B4656
:1028300010461946FDF7B6FD06460F466410002CFB
:10284000EAD1DDE90401DDE90023BAF1000F06DA7F
:10285000FDF7A8FD42464B46FDF7A4FD05E0FDF758
:1028600013FE42464B46FDF70FFE04460E4600227D
:10287000284BFEF711F803D84FF0FF30014607E070
:102880000022254B20463146FDF7E5FCFDF7ECFF25
:10289000102409E0002C0ADB0A220023FDF798FC33
:1028A000039B30321A55641E50EA0102F2D1641CB7
:1028B000039AC4F111031444119A012A03D001228E
:1028C00008430DD10AE0084304D000204FF0110B5B
:1028D000119072E7A3EB0B056D1E0DE05B4504DD67
:1028E0004FF0000205F1010504E003DA4FF00002A9
:1028F000A5F10105002AECD002981199C0E9023136
:10290000C0E9004579E70000000014400000F03FF6
:10291000300000000000F0430000E03F2DE9FF4FD1
:1029200095B09B468946064600250FE2252877D1BB
:1029300000242746F84A0121059400E0044316F8D4
:10294000013F203B01FA03F01042F7D130782A28EA
:1029500011D06FF02F033078A0F13002092A16D879
:10296000059A44F0020402EB820203EB4202104497
:10297000761C0590EFE759F8042B0592002A03DA3C
:10298000504244F40054059044F00204761C307820
:102990002E2816D116F8010F44F004042A280DD071
:1029A0006FF02F023078A0F13003092B09D807EB24
:1029B000870302EB4303C718761CF3E759F8047B3F
:1029C000761C30786C280FD006DC4C2817D068288D
:1029D0000DD06A2814D104E0742810D07A280FD1C1
:1029E0000DE044F400140AE044F4801401E044F4DF
:1029F00040147278824202D104F58014761C761C51
:102A0000307866280BD013DC582877D009DC0028F2
:102A100075D04528F6D04628F4D047281AD19DE134
:102A200018E0632835D0642879D0652812D195E163
:102A3000702873D008DC6728F1D069286FD06E2821
:102A40000DD06F2806D1B5E073282CD0752875D02D
:102A5000782874D05A46179990476D1C75E1C4F3D5
:102A60000250022809D003280DD0D9F800100428FC
:102A70000DD00D6009F1040967E1D9F80010EA17DB
:102A8000C1E90052F6E7D9F800100D80F2E70D70A9
:102A9000F0E719F8041B8DF8001000208DF80100F4
:102AA000EA46012003E059F804AB4FF0FF3061071C
:102AB0004FF0000102D40DE008F101018846B9424F
:102AC0000FDA8045F8DB1AF808100029F4D108E085
:102AD00008F1010188468142FADB1AF80810002942
:102AE000F6D105985B46A0EB080721463846179AB1
:102AF00000F094FA284400EB080507E04DE029E1D6
:102B00000DE01AF8010B5A4617999047B8F10108E1
:102B1000F7D25B4621463846179A13E142E00A2273
:102B20000092C4F302524FF0000A022A08D059F86A
:102B300004CB032A4FEAEC710AD00DE029E02AE029
:102B400009F1070121F00702F2E802C1914609E00C
:102B50000FFA8CFC4FEAEC71042A03D14FFA8CFC7B
:102B60004FEAEC71002907DA0A460021DCF1000C7B
:102B700061EB02012D2202E0220504D52B228DF803
:102B80000420012203E0E20701D02022F7E790466B
:102B900059E00A2102E010220DE010214FF0000A56
:102BA00000910BE010224FF0000A44F004040827C3
:102BB000009203E008224FF0000A0092C4F3025290
:102BC000022A05D059F804CB0021032A08D009E0D5
:102BD00009F1070121F00702F2E802C1914605E080
:102BE0001FFA8CFC042A01D10CF0FF0C4FF00008F6
:102BF000220728D5702806D0009B83F0100353EAE3
:102C00000A0305D00EE040228DF80420012208E0DE
:102C10005CEA010206D030228DF804208DF8050010
:102C200002229046009B83F0080353EA0A030AD16C
:102C30005CEA010201D1620705D530228DF804203B
:102C40004FF001087F1E582804D034A003900EA82E
:102C500002900DE036A0F9E753466046009AFDF772
:102C6000B7FA84460398825C0298401E0290027074
:102C70005CEA0100F0D1029806A9081A00F1200AC6
:102C8000600702D524F4803400E00127574502DDB7
:102C9000A7EB0A0000E0002000EB0A010090059875
:102CA0004144401A0590E00306D45B462146179A3A
:102CB000059800F0B3F90544002706E001A85A463C
:102CC000C05D179990476D1C7F1C4745F6DBE003FC
:102CD0000CD55B462146179A059800F09FF90544EC
:102CE00004E030205A46179990476D1C0099481E01
:102CF00000900029F5DC08E0029802995A46007815
:102D0000491C0291179990476D1CBAF10001AAF174
:102D1000010AF1DC65E1000009280100303132339D
:102D20003435363738396162636465660000000007
:102D300030313233343536373839414243444546F1
:102D40000000000000F058F90544761C3078002897
:102D50007FF4ECAD19B02846BDE8F08F620700D4CF
:102D6000062709F1070222F0070CFCE80223E146DE
:102D700003F000485FEA080C02D00FF2702C0DE05F
:102D80005FEA045C02D50FF2682C07E05FEAC47CBE
:102D900002D00FF2602C01E0AFF2700C4FF0FF3860
:102DA00023F00043CDF850C065280CD006DC452840
:102DB00009D046281DD047283DD13DE0662818D0CF
:102DC00067287ED138E00021112F01DB112000E0BF
:102DD000781CCDE9000106A90EA8FFF7DDFCDDE9AE
:102DE0000F010E9A03910021009207F1010A04914C
:102DF0004DE04FF000400097CDE9011006A90EA864
:102E0000FFF7CAFCDDE90F0203920E9B1199002225
:102E1000DDF80CA00093049211B9791C00EB010AB3
:102E2000B7EB0A0004D4C0F1FF3007F1010A0490A7
:102E3000AAEB0700019044E0012F00DA01270021EE
:102E4000112F01DD112000E03846CDE9000106A96F
:102E50000EA8FFF7A1FCDDE90F010E9A03910021F6
:102E600004910092BA4621070CD40399514500DA27
:102E70008A46BAF1010F05DD009AAAF10101515C01
:102E8000302908D0B84202DA10F1040F06DA012125
:102E9000CDE9011015E0AAF10101E9E7002805DC00
:102EA000049901440491AAEB000102E0411C514540
:102EB00000DD8A460499401A401C01904FF0004002
:102EC0000290200704D40198504501DBCDF804801E
:102ED00000208DF84F0002980DF14F07B0F1004F20
:102EE00025D02B200E9002984FF0020800280CDA13
:102EF000404202902D200E9007E00A210298FDF733
:102F000087FB3031029007F8011DB8F10001A8F1EC
:102F10000108F2DC02980028EFD1791E0E980870A3
:102F2000307800F0200040F0450007F8020D12A8AC
:102F3000C01B00F107081498007800B1012000EBD5
:102F40000A01019801EBE07105984144401A401EC6
:102F50000590E00306D45B462146179A059800F0D9
:102F60005DF805441498007818B15A4617999047AF
:102F70006D1CE00324D55B462146179A059800F0A6
:102F80004DF805441CE00498002807DBDDE9030147
:102F9000884203DD0098405C179901E017993020C2
:102FA0005A469047049805F10105401C0490019889
:102FB000401E019004D12E205A46179990476D1C4F
:102FC000BAF10001AAF1010ADDDC05E017F8010BF6
:102FD0005A46179990476D1CB8F10001A8F10108F5
:102FE000F4DC5B462146179A0598ABE62D000000FD
:102FF0002B000000200000002DE9F04104460025D0
:103000001E461746880404D405E039462020B04700
:103010006D1C641EF9D52846BDE8F0812DE9F0410C
:10302000044600251E469046C80301D5302700E01F
:103030002027880404D505E041463846B0476D1C7A
:10304000641EF9D52846BDE8F0810A68531C0B6060
:103050001070704700B5AFB000202D902C902B90D1
:103060002A909FEDFE0A8DED220A9FEDFC0A8DED60
:10307000210A9FEDFA0A8DED200A9FEDF80A8DEDE9
:103080001F0A9FEDF60A8DED1E0A9FEDF40A8DEDE5
:103090001D0A4FF6FF7001F021F84FF47840F0A1BF
:1030A00010221346CDE900210290F02232210A209D
:1030B00004F0DCFB4FF47840F0A110221346CDE978
:1030C00000210290F02246210A2004F0CFFB4FF4A9
:1030D0007840F1A110221346CDE900210290F022A0
:1030E0005A210A2004F0C2FB4FF47840EDA11022CF
:1030F0001346CDE900210290F0226E210A2004F04F
:10310000B5FB4FF47840EBA110221346CDE9002126
:103110000290F02282210A2004F0A8FB4FF47840AC
:10312000E8A110221346CDE900210290F022962159
:103130000A2004F09BFB4FF47840E7A110221346CD
:10314000CDE900210290F022AA210A2004F08EFB92
:103150004FF47840E3A110221346CDE900210290FC
:10316000F022BE210A2004F081FB4FF47840E1A157
:1031700010221346CDE900210290F022D2210A202C
:1031800004F074FBFDF7FAFD2B90E0A02B99FFF7FC
:103190003DF8EDE0002000F03FFF2D902D98042831
:1031A00000D1E6E0FDF7EAFD2A90DDA02A99FFF7BD
:1031B0002DF8DDE92A01401AB0F5FA6F0AD92C98EA
:1031C000401CC0B22C902C98052801DD00202C90CA
:1031D0002A982B9023A804F06BFEDDED240A9DEDC8
:1031E000210AF4EEC00AF1EE10FA02DD9DED240A88
:1031F00001E09DED210A8DED210ADDED240A9DED12
:10320000220AF4EEC00AF1EE10FA02D29DED240A71
:1032100001E09DED220A8DED220ADDED250A9DEDEE
:103220001F0AF4EEC00AF1EE10FA02DD9DED250A48
:1032300001E09DED1F0A8DED1F0ADDED250A9DEDD4
:10324000200AF4EEC00AF1EE10FA02D29DED250A32
:1032500001E09DED200A8DED200ADDED260A9DEDB1
:103260001D0AF4EEC00AF1EE10FA02DD9DED260A09
:1032700001E09DED1D0A8DED1D0ADDED260A9DED97
:103280001E0AF4EEC00AF1EE10FA02D29DED260AF3
:1032900001E09DED1E0A8DED1E0A4FF6FF704FF402
:1032A0009173F022E62100900A2003F01DFD2C9876
:1032B000062852D2DFE800F003101D2A37441F20F1
:1032C0009CA110221346CDE900210290F022E621B4
:1032D0000A2004F0CBFA40E01F209BA110221346E5
:1032E000CDE900210290F022E6210A2004F0BEFA86
:1032F00033E01F2099A110221346CDE9002102904E
:10330000F022E6210A2004F0B1FA26E01F2099A15C
:1033100010221346CDE900210290F022E6210A2076
:1033200004F0A4FA19E01F2098A110221346CDE959
:1033300000210290F022E6210A2004F097FA0CE026
:103340001F2096A110221346CDE900210290F02201
:10335000E6210A2004F08AFA00BF00BF00BF4FF444
:1033600000719348FDF7F4FC00BF322000F024FC0C
:1033700010E700BF4FF6FF7000F0B0FE4FF478404A
:103380008CA110221346CDE900210290F0225A218F
:103390000A2004F06BFA9DED220AF7EE000A30EEE7
:1033A000200A8DED010A0198FDF703F9CDE902012C
:1033B0009DED020BFFF73CF98DED060B9DED210A0B
:1033C000F7EE000A30EE600A8DED010A0198FDF774
:1033D000F0F8CDE902019DED020BFFF729F98DED23
:1033E000040B9DED060B53EC102B9DED040B51ECE3
:1033F000100BFCF730FF9FED750B53EC102BCDE954
:1034000008019DED080B51EC100BFDF73DF8CDE9DF
:103410000A019DED0A0B51EC100BFDF7DDF81C9035
:103420009DED200AF7EE000A30EE200A8DED010A2C
:103430000198FDF7BEF8CDE902019DED020BFFF703
:10344000F7F88DED060B9DED1F0AF7EE000A30EE42
:10345000600A8DED010A0198BCE000000000000048
:10346000416363656C2043616C6962726174696F6A
:103470006E2056657269667900000000506C6163C9
:103480006520626F61726420696E203620706F73F0
:103490006974696F6E733A00312E2046616365204E
:1034A00075700000322E204661636520646F776E70
:1034B00000000000332E204C65667420736964653B
:1034C00020757000342E2052696768742073696417
:1034D0006520757000000000352E20546F70207537
:1034E00070000000362E20426F74746F6D2075706E
:1034F00000000000507265737320574B55502077C1
:1035000068656E20646F6E65000000006C61737406
:103510005F74696D65203D2025640D0A0000000080
:1035200063757272656E745F74696D65203D2025E8
:10353000640D0A0043757272656E743A20466163C9
:10354000652075700000000043757272656E743AF4
:10355000204661636520646F776E00004375727268
:10356000656E743A204C65667420736964652075D5
:103570007000000043757272656E743A205269677C
:1035800068742073696465207570000043757272F9
:10359000656E743A20546F702075700043757272B6
:1035A000656E743A20426F74746F6D207570000000
:1035B00000140240416363656C2056657269667948
:1035C00020526573756C743A000000000000000022
:1035D00000000040FCF7EDFFCDE902019DED020B7C
:1035E000FFF726F88DED040B9DED060B53EC102B29
:1035F0009DED040B51EC100BFCF72DFE1FED0D0B98
:1036000053EC102BCDE908019DED080B51EC100B8C
:10361000FCF73AFFCDE90A019DED0A0B51EC100BC6
:10362000FCF7DAFF1B909DED1E0AF7EE000A30EE64
:10363000200A8DED010A0198FCF7BBFFCDE90201DC
:103640009DED020BFEF7F4FF8DED060B9DED1D0ABF
:10365000F7EE000A30EE600A8DED010A0198FCF7E2
:10366000A8FFCDE902019DED020BFEF7E1FF8DED14
:10367000040B9DED060B53EC102B9DED040B51EC50
:10368000100BFCF7E8FD1FED2F0B53EC102BCDE9D1
:1036900008019DED080B51EC100BFCF7F5FECDE990
:1036A0000A019DED0A0B51EC100BFCF795FF1A90E7
:1036B0001C98FCF77EFFCDE90A012198FCF779FF01
:1036C000CDE908012298FCF774FFCDE90601DDE998
:1036D0000A01CDE90201DDE90801CDE900019DED16
:1036E000060B53EC102B9FA10DA8FEF79FFD0020A9
:1036F0000DA910221346CDE900210290F0226E217F
:103700000A2004F0B3F81B98FCF753FFCDE90A0137
:103710001F98FCF74EFFCDE908012098FCF749FF00
:10372000CDE90601DDE90A01CDE90201DDE9080183
:10373000CDE900019DED060B53EC102B90A10DA8D7
:10374000FEF774FD00200DA910221346CDE90021DB
:103750000290F02282210A2004F088F81A98FCF7DF
:1037600028FFCDE90A011D98FCF723FFCDE90801E8
:103770001E98FCF71EFFCDE90601DDE90A01CDE93F
:103780000201DDE90801CDE900019DED060B53ECD6
:10379000102B82A10DA8FEF749FD00200DA91022D3
:1037A0001346CDE900210290F02296210A2004F070
:1037B0005DF8DDED1A0A9DED1B0AFEF743FF8DED66
:1037C0000B0ADDED0B0A9DED1C0AFEF73BFF8DEDAC
:1037D0000C0A79A0FEF71AFD1C98FCF7EAFECDE969
:1037E0000A012198FCF7E5FECDE908012298FCF7D3
:1037F000E0FECDE90601DDE90A01CDE90201DDE9DE
:103800000801CDE900019DED060B53EC102B75A0CE
:10381000FEF7FCFC1B98FCF7CCFECDE90A011F98D3
:10382000FCF7C7FECDE908012098FCF7C2FECDE900
:103830000601DDE90A01CDE90201DDE90801CDE972
:1038400000019DED060B53EC102B70A0FEF7DEFC83
:103850001A98FCF7AEFECDE90A011D98FCF7A9FE07
:10386000CDE908011E98FCF7A4FECDE90601DDE9CB
:103870000A01CDE90201DDE90801CDE900019DED74
:10388000060B53EC102B6BA0FEF7C0FC0C98FCF75A
:1038900090FECDE90A019DED0A0B53EC102B6FA0B1
:1038A000FEF7B4FC9DED0C0ADFED710AB4EEE00A00
:1038B000F1EE10FA10D26FA0FEF7A8FC4FF4FC60F6
:1038C00070A110221346CDE900210290F022BE2102
:1038D0000A2003F0CBFF42E09DED0C0ADFED6F0AFA
:1038E000B4EEE00AF1EE10FA0FD26DA0FEF78EFCF6
:1038F0001F206DA110221346CDE900210290F02275
:10390000BE210A2003F0B2FF29E09DED0C0ADFED95
:103910006B0AB4EEE00AF1EE10FA10D268A0FEF7DE
:1039200075FC4FF6E07068A110221346CDE9002126
:103930000290F022BE210A2003F098FF0FE067A05A
:10394000FEF764FC4FF478406CA110221346CDE9D9
:1039500000210290F022BE210A2003F087FF2FB041
:1039600000BD0000583A20252E336667207E2025B2
:103970002E33666720286572723A252E3366290039
:10398000593A20252E336667207E20252E33666720
:1039900020286572723A252E336629005A3A20256E
:1039A0002E336667207E20252E33666720286572B9
:1039B000723A252E33662900416363656C65726F28
:1039C0006D657465722043616C6962726174696FC0
:1039D0006E2056657269667920526573756C743A0B
:1039E0000D0A0000582072616E67653A20252E335B
:1039F000666720746F20252E3366672028657272F3
:103A00006F723A20252E3366290D0A005920726103
:103A10006E67653A20252E33666720746F20252E49
:103A200033666720286572726F723A20252E3366DE
:103A3000290D0A005A2072616E67653A20252E33DF
:103A4000666720746F20252E3366672028657272A2
:103A50006F723A20252E3366290D0A004D617820B9
:103A60006572726F723A20252E3366202D20000079
:103A7000CDCCCC3D457863656C6C656E74210D0AC8
:103A80000000000043616C6962726174696F6E3A94
:103A900020457863656C6C656E742100CDCC4C3E1E
:103AA000476F6F640D0A000043616C696272617454
:103AB000696F6E3A20476F6F640000009A99993ED3
:103AC000466169720D0A000043616C69627261743B
:103AD000696F6E3A2046616972000000506F6F7224
:103AE0002C20726563616C6962726174696F6E200B
:103AF0006E6565646564210D0A00000043616C69B0
:103B000062726174696F6E3A20506F6F72000000CC
:103B100070B50446002600F085F92112A02202EBC0
:103B20004101C8B200F046F900F0C4F92546E1179A
:103B300004EB11610912A4EB0121C8B200F03AF9BB
:103B400000F0B8F900F06EF9A12000F033F900F0B0
:103B5000B1F9002000F0FEF8064600F08BF930467F
:103B600070BD70B504460E4600F05CF92112A0222B
:103B700002EB4101C8B200F01DF900F09BF92546A7
:103B8000E11704EB11610912A4EB0121C8B200F0A6
:103B900011F900F08FF9304600F00CF900F08AF9C5
:103BA00000F068F90A2000F007F870BD01490860CC
:103BB000704700000400002010B504464FF47A71ED
:103BC00004FB01F000F002F810BD000070B50346E0
:103BD00000224FF0E02675690D4E366803FB06F4AF
:103BE0004FF0E026B16910E04FF0E026B06988425E
:103BF0000BD0884202D20E1A324402E02E1A0E4432
:103C000032440146A24200D300E0EDE700BF70BDA0
:103C10000400002000BF054A126802F04002002A9A
:103C2000F9D0C2B2014B5A60704700000010014049
:103C300010B500BF00224FF400711148FDF792F853
:103C400000BF00F01FF800BF012211020C48FDF771
:103C500089F800BF00F016F800BF00224FF4807111
:103C60000748FDF77FF800BF00F00CF800BF012205
:103C700051020348FDF776F800BF00F003F810BDCD
:103C80000004024010B50220FFF7A0FF10BD0000A5
:103C900000B587B000BF00BF002001901B4800683E
:103CA00040F00200194908600846006800F0020070
:103CB000019000BF00BF00BF00BF00BF0020019007
:103CC0000846006840F0020008600846006800F0FE
:103CD0000200019000BF00BF00BF881502900120C4
:103CE000039004900320059002A90948FCF726FFE1
:103CF0004FF4007002901120039002A90448FCF7D1
:103D00001DFF00F0B7F807B000BD000030380240DA
:103D10000004024010B500BF012251020C48FDF71B
:103D200021F800BFFFF7AEFF00BF012211020848D3
:103D3000FDF718F800BFFFF7A5FF00BF00224FF402
:103D400080710348FDF70EF800BFFFF79BFF10BD21
:103D50000004024070B50546002400261EE06006FF
:103D6000040E00BF012211021148FCF7FBFF00BF47
:103D7000FFF788FF4FF400710D48FCF7E1FF08B131
:103D8000601CC4B200BF00224FF480710848FCF7E9
:103D9000E9FF00BFFFF776FF701CC6B2082EDEDB1E
:103DA00015B9FFF7B7FF01E0FFF742FF204670BDEE
:103DB0000004024070B50446002526E000BFE0097B
:103DC00028B1012251021648FCF7CCFF05E0002281
:103DD0004FF400711248FCF7C5FF00BFFFF752FF18
:103DE00000BF012211020E48FCF7BCFF00BFFFF725
:103DF00049FF00BF00224FF480710948FCF7B2FF71
:103E000000BF6006040E681CC5B2082DD6DB00BFDB
:103E1000012251020248FCF7A5FF00BF70BD00005F
:103E20000004024010B500BF012251021048FCF707
:103E300099FF00BF00BF012211020D48FCF792FF5D
:103E400000BFFFF71FFF00BF00224FF400710848BA
:103E5000FCF788FF00BFFFF715FF00BF00224FF4FB
:103E600080710348FCF77EFF00BFFFF70BFF10BD1A
:103E70000004024010B500BF00224FF400710C484E
:103E8000FCF770FF00BFFFF7FDFE00BF012211022B
:103E90000748FCF767FF00BFFFF7F4FE00BF0122F1
:103EA00051020348FCF75EFF00BFFFF7EBFE10BDB9
:103EB0000004024070B50024002500BF0122510219
:103EC0001548FCF74FFF00BFFFF7DCFE00BF0122E3
:103ED00011021148FCF746FF00BFFFF7D3FE07E0D1
:103EE000601CC4B2FA2C03DDFFF7C4FF012506E015
:103EF0004FF400710848FCF723FF0028F0D100BF01
:103F000000BF00224FF480710348FCF72BFF00BF75
:103F1000FFF7B8FE284670BD0004024000B587B028
:103F200000BF00BF002001903848006840F010003A
:103F3000364908600846006800F01000019000BF94
:103F400000BF00BF00BF00BF00200190084600680E
:103F500040F0100008600846006800F01000019072
:103F600000BF00BF00BF00BF00BF00200190084697
:103F7000006840F0100008600846006800F010007B
:103F8000019000BF00BF00BF00BF00BF0020019034
:103F90000846006840F0010008600846006800F02C
:103FA0000100019000BF00BF00BF10200290002060
:103FB0000390012004900220059002A91448FCF708
:103FC000BDFD0820029000200390012004900220F3
:103FD000059002A90E48FCF7B1FD042002900020D4
:103FE0000390012004900220059002A90848FCF7E4
:103FF000A5FD01200290002003900220049005906E
:1040000002A90448FCF79AFD07B000BD3038024011
:10401000001002400000024070B50446002514B1B3
:1040200001202B4908702A480078002834D010213C
:104030002848FCF785FE78B108212648FCF780FE69
:1040400050B104212348FCF77BFE28B1012122480E
:10405000FCF776FE01281FD10A20FFF7ADFD0020F6
:104060001B49087010211B48FCF76AFE00B90125A6
:1040700008211848FCF764FE00B902250421154800
:10408000FCF75EFE00B9032501211348FCF758FE3A
:1040900001281BD1042519E010210E48FCF750FE21
:1040A000012813D108210B48FCF74AFE01280DD145
:1040B00004210848FCF744FE012807D101210648E5
:1040C000FCF73EFE10B9012001490870284670BD7A
:1040D00024000020001002400000024070B5044699
:1040E000002609480588408845430021084603F01A
:1040F00041FA03F09BFC00BF02E004480480761CF8
:10410000AE42FAD370BD0000300300208000006C86
:1041100010B5044658488471002C58D1F0205649F7
:1041200008804FF4A07048800846808845F21051FE
:10413000884210D14FF430504F4908814FF4285035
:1041400048814FF42C5088814FF4F07008804FF470
:10415000487048801AE04848808841F663118842D8
:104160000DD12C20444908812B2048812A208881A8
:104170004FF4F07008804FF44870488006E02C201F
:104180003D4908812A2048812B2088813A4880882F
:1041900045F21031884205D03748808847F2967141
:1041A000884206D14FF4A070334908804FF4F07074
:1041B00048803148808849F60601884258D14FF43A
:1041C000F0702D4908804FF44870488050E04FF45B
:1041D000A07029490880F02048800846808845F270
:1041E0001051884210D14FF43050234908814FF4C8
:1041F000285048814FF42C5088814FF44870088033
:104200004FF4F070488020E01B48808841F663112D
:10421000884205D01848808849F6060188420DD1A9
:104220002C20154908812A2048812B2088814FF4B1
:10423000487008804FF4F070488006E02C200E494A
:1042400008812A2048812B2088810B48808845F2EC
:104250001031884205D00848808847F2967188421C
:1042600006D14FF4F070044908804FF4A0704880E4
:10427000002003F061F810BD300300202DE9F04765
:1042800006460F4690469A46002445460320A0EB7A
:10429000480944E07A1B91B2321990B2524600F0BC
:1042A00099F83A1B91B2721990B2524600F092F806
:1042B0003A1991B2721990B2524600F08BF87A19FD
:1042C00091B2321990B2524600F084F87A1991B244
:1042D000321B90B2524600F07DF83A1991B2721B2F
:1042E00090B2524600F076F87A1B91B2321B90B22F
:1042F000524600F06FF83A1B91B2721B90B25246D0
:1043000000F068F8641CB9F1000F03DAA000801D0A
:10431000814404E0601B80000A3081446D1EAC4281
:10432000B8DDBDE8F0872DE9FF4F84B081468A46AD
:104330000020029083460698A0EB09050798A0EBA1
:104340000A06CDF80490CDF800A0002D01DD01276C
:1043500005E00DB9002702E04FF0FF376D42002E57
:1043600002DD4FF0010806E016B94FF0000802E048
:104370004FF0FF387642B54201DD2C4600E034466E
:10438000002003901EE0009A91B2019A90B2119A17
:1043900000F020F8029828440290B3440298A0420A
:1043A00005DD0298001B0290019838440190A34556
:1043B00004DDABEB040B0098404400900398401CD4
:1043C00080B20390611C03988842DCDD08B0BDE830
:1043D000F08F000070B505460E461446314628465B
:1043E00003F0C8F803F022FB01490C8070BD000007
:1043F0008000006C2DE9F84105460E4617469846A8
:10440000079C33463A46314628460094FFF78BFF17
:1044100043462A46314628460094FFF784FF434628
:104420003A46414628460094FFF77DFF43463A4608
:10443000314638460094FFF776FFBDE8F88110B5A5
:10444000CF2003F0E7FA002003F0D8FAC12003F0F0
:10445000D5FA302003F0D2FAED2003F0DBFA642025
:1044600003F0CCFA032003F0C9FA122003F0C6FAD5
:10447000812003F0C3FAE82003F0CCFA852003F092
:10448000BDFA102003F0BAFA7A2003F0B7FACB2075
:1044900003F0C0FA392003F0B1FA2C2003F0AEFA91
:1044A000002003F0ABFA342003F0A8FA022003F056
:1044B000A5FAF72003F0AEFA202003F09FFAEA20D5
:1044C00003F0A8FA002003F099FA002003F096FA0E
:1044D000C02003F09FFA1B2003F090FAC12003F0E4
:1044E00099FA012003F08AFAC52003F093FA3020EC
:1044F00003F084FA302003F081FAC72003F08AFA2F
:10450000B72003F07BFA362003F084FA482003F04A
:1045100075FA3A2003F07EFA552003F06FFAB120C5
:1045200003F078FA002003F069FA1A2003F066FA23
:10453000B62003F06FFA0A2003F060FAA22003F01D
:104540005DFAF22003F066FA002003F057FA262005
:1045500003F060FA012003F051FAE02003F05AFA68
:104560000F2003F04BFA2A2003F048FA282003F02A
:1045700045FA082003F042FA0E2003F03FFA082023
:1045800003F03CFA542003F039FAA92003F036FA7C
:10459000432003F033FA0A2003F030FA0F2003F02F
:1045A0002DFA002003F02AFA002003F027FA002059
:1045B00003F024FA002003F021FAE12003F02AFAA4
:1045C000002003F01BFA152003F018FA172003F05F
:1045D00015FA072003F012FA112003F00FFA062053
:1045E00003F00CFA2B2003F009FA562003F006FA28
:1045F0003C2003F003FA052003F000FA102003F03A
:10460000FDF90F2003F0FAF93F2003F0F7F93F20FE
:1046100003F0F4F90F2003F0F1F92B2003F0FAF97D
:10462000002003F0EBF9002003F0E8F9012003F08B
:10463000E5F93F2003F0E2F92A2003F0EBF900202E
:1046400003F0DCF9002003F0D9F9002003F0D6F9DB
:10465000EF2003F0D3F9112003F0DCF97820FFF705
:10466000ABFA292003F0D6F910BD10B5FF2003F0F6
:10467000D1F9FF2003F0C2F9982003F0BFF906201A
:1046800003F0BCF9BC2003F0C5F9012003F0B6F932
:104690000F2003F0B3F9612003F0B0F9FF2003F01D
:1046A000ADF9012003F0AAF9012003F0A7F90B20CE
:1046B00003F0A4F9102003F0A1F9372003F09EF9CC
:1046C000632003F09BF9FF2003F098F9FF2003F02B
:1046D00095F9012003F092F9012003F08FF90020F1
:1046E00003F08CF9002003F089F9FF2003F086F92C
:1046F000522003F083F9012003F080F9002003F039
:104700007DF9402003F07AF9BD2003F083F9012000
:1047100003F074F9232003F071F9452003F06EF9DA
:10472000672003F06BF9012003F068F9232003F000
:1047300065F9452003F062F9672003F05FF9BE20B8
:1047400003F068F9002003F059F9012003F056F94D
:10475000AB2003F053F9602003F050F9222003F05E
:104760004DF9222003F04AF9222003F047F92220D4
:1047700003F044F9222003F041F9C72003F04AF97D
:10478000362003F03BF9ED2003F044F97F2003F0DD
:1047900035F90F2003F032F9C02003F03BF90F2068
:1047A00003F02CF90B2003F029F90A2003F026F975
:1047B000FC2003F02FF9082003F020F9DF2003F09C
:1047C00029F9002003F01AF9002003F017F900205E
:1047D00003F014F9002003F011F9002003F00EF9A2
:1047E000202003F00BF9F32003F014F9742003F0F8
:1047F00005F9B42003F00EF9002003F0FFF80020C3
:1048000003F0FCF8002003F0F9F8F72003F002F9B8
:10481000822003F0F3F8B12003F0FCF8002003F04D
:10482000EDF8132003F0EAF8132003F0E7F8F22084
:1048300003F0F0F8802003F0E1F8042003F0DEF844
:10484000402003F0DBF8282003F0D8F8C12003F063
:10485000E1F8172003F0D2F8882003F0CFF8882081
:1048600003F0CCF8202003F0C9F8E02003F0D2F8E0
:10487000002003F0C3F80A2003F0C0F8122003F070
:10488000BDF8102003F0BAF80E2003F0B7F820208E
:1048900003F0B4F8CC2003F0B1F8072003F0AEF831
:1048A000062003F0ABF80B2003F0A8F80E2003F06D
:1048B000A5F80F2003F0A2F80D2003F09FF81520B3
:1048C00003F09CF8102003F099F8002003F096F80C
:1048D000E12003F09FF8002003F090F80B2003F094
:1048E0008DF8132003F08AF80D2003F087F80E20CE
:1048F00003F084F81B2003F081F8712003F07EF8A8
:10490000062003F07BF8062003F078F80A2003F075
:1049100075F80F2003F072F80E2003F06FF80F20E7
:1049200003F06CF8152003F069F80C2003F066F82A
:10493000002003F063F82A2003F06CF8002003F055
:104940005DF8002003F05AF8012003F057F8DF204B
:1049500003F054F82B2003F05DF8002003F04EF82C
:10496000002003F04BF8032003F048F81F2003F069
:1049700045F83A2003F04EF8552003F03FF8362072
:1049800003F048F8002003F039F8112003F042F852
:104990007820FFF711F9292003F03CF81420FFF7E5
:1049A0000BF92C2003F036F810BD10B5ED2003F004
:1049B00031F8012003F022F8FE2003F01FF8EE206A
:1049C00003F028F8DE2003F019F8212003F016F890
:1049D000F12003F01FF8012003F010F8DF2003F0AE
:1049E00019F8102003F00AF8C42003F013F88F2000
:1049F00003F004F8C62003F00DF8002002F0FEFFDB
:104A0000E22002F0FBFFE22002F0F8FFE22002F0D9
:104A1000F5FFBF2002F0FEFFAA2002F0EFFFB0205A
:104A200002F0F8FF0D2002F0E9FF002002F0E6FF9F
:104A30000D2002F0E3FF002002F0E0FF112002F061
:104A4000DDFF002002F0DAFF192002F0D7FF00207E
:104A500002F0D4FF212002F0D1FF002002F0CEFFAF
:104A60002D2002F0CBFF002002F0C8FF3D2002F015
:104A7000C5FF002002F0C2FF5D2002F0BFFF002052
:104A800002F0BCFF5D2002F0B9FF002002F0B6FF8B
:104A9000B12002F0BFFF802002F0B0FF002002F042
:104AA000ADFF8B2002F0AAFF002002F0A7FF9620A6
:104AB00002F0A4FF002002F0A1FFB22002F0AAFF42
:104AC000002002F09BFF002002F098FF022002F07D
:104AD00095FF002002F092FF032002F08FFF0020DC
:104AE00002F08CFFB32002F095FF002002F086FF59
:104AF000002002F083FF002002F080FF002002F07F
:104B00007DFF002002F07AFF002002F077FF0020F6
:104B100002F074FF002002F071FF002002F06EFF2F
:104B2000002002F06BFF002002F068FF002002F07E
:104B300065FF002002F062FF002002F05FFF00200E
:104B400002F05CFF002002F059FF002002F056FF47
:104B5000002002F053FF002002F050FF002002F07E
:104B60004DFF002002F04AFF002002F047FF002026
:104B700002F044FF002002F041FFB42002F04AFF9F
:104B80008B2002F03BFF002002F038FF962002F05D
:104B900035FF002002F032FFA12002F02FFF00209D
:104BA00002F02CFFB52002F035FF022002F026FFB4
:104BB000002002F023FF032002F020FF002002F07B
:104BC0001DFF042002F01AFF002002F017FFB6209C
:104BD00002F020FF002002F011FF002002F00EFF83
:104BE000B72002F017FF002002F008FF002002F0BB
:104BF00005FF3F2002F002FF002002F0FFFE5E20D2
:104C000002F0FCFE002002F0F9FE642002F0F6FE45
:104C1000002002F0F3FE8C2002F0F0FE002002F0F3
:104C2000EDFEAC2002F0EAFE002002F0E7FEDC2000
:104C300002F0E4FE002002F0E1FE702002F0DEFE51
:104C4000002002F0DBFE902002F0D8FE002002F0EF
:104C5000D5FEEB2002F0D2FE002002F0CFFEDC20D9
:104C600002F0CCFE002002F0C9FEB82002F0D2FE15
:104C7000002002F0C3FE002002F0C0FE002002F07F
:104C8000BDFE002002F0BAFE002002F0B7FE0020B8
:104C900002F0B4FE002002F0B1FE002002F0AEFEF1
:104CA000BA2002F0B7FE242002F0A8FE002002F095
:104CB000A5FE002002F0A2FE002002F09FFEC1200F
:104CC00002F0A8FE202002F099FE002002F096FEDD
:104CD000542002F093FE002002F090FEFF2002F02C
:104CE0008DFE002002F08AFEC22002F093FE0A2010
:104CF00002F084FE002002F081FE042002F07EFE1D
:104D0000002002F07BFEC32002F084FE3C2002F073
:104D100075FE002002F072FE3A2002F06FFE0020C5
:104D200002F06CFE392002F069FE002002F066FEFF
:104D3000372002F063FE002002F060FE3C2002F00B
:104D40005DFE002002F05AFE362002F057FE0020E1
:104D500002F054FE322002F051FE002002F04EFE1E
:104D60002F2002F04BFE002002F048FE2C2002F023
:104D700045FE002002F042FE292002F03FFE002006
:104D800002F03CFE262002F039FE002002F036FE42
:104D9000242002F033FE002002F030FE242002F036
:104DA0002DFE002002F02AFE232002F027FE002024
:104DB00002F024FE3C2002F021FE002002F01EFE44
:104DC000362002F01BFE002002F018FE322002F016
:104DD00015FE002002F012FE2F2002F00FFE002030
:104DE00002F00CFE2C2002F009FE002002F006FE6C
:104DF000292002F003FE002002F000FE262002F02F
:104E0000FDFD002002F0FAFD242002F0F7FD002055
:104E100002F0F4FD242002F0F1FD002002F0EEFD8E
:104E2000232002F0EBFD002002F0E8FDC42002F098
:104E3000F1FD622002F0E2FD002002F0DFFD05201E
:104E400002F0DCFD002002F0D9FD842002F0D6FD46
:104E5000002002F0D3FDF02002F0D0FD002002F08F
:104E6000CDFD182002F0CAFD002002F0C7FDA420ED
:104E700002F0C4FD002002F0C1FD182002F0BEFDCA
:104E8000002002F0BBFD502002F0B8FD002002F02F
:104E9000B5FD0C2002F0B2FD002002F0AFFD17209E
:104EA00002F0ACFD002002F0A9FD952002F0A6FD65
:104EB000002002F0A3FDF32002F0A0FD002002F08C
:104EC0009DFDE62002F09AFD002002F097FDC5202E
:104ED00002F0A0FD322002F091FD002002F08EFDD4
:104EE000442002F08BFD002002F088FD652002F0D6
:104EF00085FD002002F082FD762002F07FFD00207B
:104F000002F07CFD882002F079FD002002F076FDA1
:104F1000C62002F07FFD202002F070FD002002F08C
:104F20006DFD172002F06AFD002002F067FD0120F0
:104F300002F064FD002002F061FDC72002F06AFD6E
:104F4000002002F05BFD002002F058FD002002F07E
:104F500055FD002002F052FDC82002F05BFD00204C
:104F600002F04CFD002002F049FD002002F046FD59
:104F7000002002F043FDC92002F04CFD002002F0A9
:104F80003DFD002002F03AFD002002F037FD002038
:104F900002F034FD002002F031FD002002F02EFD71
:104FA000002002F02BFD002002F028FD002002F07E
:104FB00025FD002002F022FD002002F01FFD002050
:104FC00002F01CFD002002F019FD002002F016FD89
:104FD000002002F013FD002002F010FDE02002F09E
:104FE00019FD162002F00AFD002002F007FD1C202A
:104FF00002F004FD002002F001FD212002F0FEFC81
:10500000002002F0FBFC362002F0F8FC002002F049
:10501000F5FC462002F0F2FC002002F0EFFC5220EA
:1050200002F0ECFC002002F0E9FC642002F0E6FC57
:10503000002002F0E3FC7A2002F0E0FC002002F005
:10504000DDFC8B2002F0DAFC002002F0D7FC992076
:1050500002F0D4FC002002F0D1FCA82002F0CEFC2B
:10506000002002F0CBFCB92002F0C8FC002002F0C6
:10507000C5FCC42002F0C2FC002002F0BFFCCA2024
:1050800002F0BCFC002002F0B9FCD22002F0B6FC19
:10509000002002F0B3FCD92002F0B0FC002002F0A6
:1050A000ADFCE02002F0AAFC002002F0A7FCF320F7
:1050B00002F0A4FC002002F0A1FCE12002F0AAFC16
:1050C000162002F09BFC002002F098FC1C2002F04D
:1050D00095FC002002F092FC222002F08FFC0020C0
:1050E00002F08CFC362002F089FC002002F086FCE5
:1050F000452002F083FC002002F080FC522002F0E8
:105100007DFC002002F07AFC642002F077FC002095
:1051100002F074FC7A2002F071FC002002F06EFCB8
:105120008B2002F06BFC002002F068FC992002F05A
:1051300065FC002002F062FCA82002F05FFC002069
:1051400002F05CFCB92002F059FC002002F056FC91
:10515000C42002F053FC002002F050FCCA2002F0F0
:105160004DFC002002F04AFCD22002F047FC002057
:1051700002F044FCD82002F041FC002002F03EFC8A
:10518000E02002F03BFC002002F038FCF32002F0AB
:1051900035FC002002F032FCE22002F03BFC05204E
:1051A00002F02CFC002002F029FC0B2002F026FC6F
:1051B000002002F023FC1B2002F020FC002002F063
:1051C0001DFC342002F01AFC002002F017FC4420E1
:1051D00002F014FC002002F011FC4F2002F00EFC43
:1051E000002002F00BFC612002F008FC002002F01D
:1051F00005FC792002F002FC002002F0FFFB882071
:1052000002F0FCFB002002F0F9FB972002F0F6FB15
:10521000002002F0F3FBA62002F0F0FB002002F0D9
:10522000EDFBB72002F0EAFB002002F0E7FBC22012
:1052300002F0E4FB002002F0E1FBC72002F0DEFBFD
:10524000002002F0DBFBD12002F0D8FB002002F0AE
:10525000D5FBD62002F0D2FB002002F0CFFBDD20F0
:1052600002F0CCFB002002F0C9FBF32002F0C6FBE9
:10527000002002F0C3FBE32002F0CCFB052002F08B
:10528000BDFB002002F0BAFB0A2002F0B7FB0020B1
:1052900002F0B4FB1C2002F0B1FB002002F0AEFBD8
:1052A000332002F0ABFB002002F0A8FB442002F008
:1052B000A5FB002002F0A2FB502002F09FFB002083
:1052C00002F09CFB622002F099FB002002F096FBAA
:1052D000782002F093FB002002F090FB882002F07F
:1052E0008DFB002002F08AFB972002F087FB002054
:1052F00002F084FBA62002F081FB002002F07EFB7E
:10530000B72002F07BFB002002F078FBC22002F005
:1053100075FB002002F072FBC72002F06FFB00203B
:1053200002F06CFBD12002F069FB002002F066FB6A
:10533000D52002F063FB002002F060FBDD2002F0CC
:105340005DFB002002F05AFBF32002F057FB002027
:1053500002F054FBE42002F05DFB012002F04EFB62
:10536000002002F04BFB012002F048FB002002F07D
:1053700045FB022002F042FB002002F03FFB2A2006
:1053800002F03CFB002002F039FB3C2002F036FB2F
:10539000002002F033FB4B2002F030FB002002F033
:1053A0002DFB5D2002F02AFB002002F027FB742079
:1053B00002F024FB002002F021FB842002F01EFBFF
:1053C000002002F01BFB932002F018FB002002F0EB
:1053D00015FBA22002F012FB002002F00FFBB3200D
:1053E00002F00CFB002002F009FBBE2002F006FBDD
:1053F000002002F003FBC42002F000FB002002F0BA
:10540000FDFACD2002F0FAFA002002F0F7FAD320DC
:1054100002F0F4FA002002F0F1FADD2002F0EEFAD8
:10542000002002F0EBFAF32002F0E8FA002002F08C
:10543000E5FAE52002F0EEFA002002F0DFFA0020A3
:1054400002F0DCFA002002F0D9FA002002F0D6FACD
:10545000022002F0D3FA002002F0D0FA292002F054
:10546000CDFA002002F0CAFA3C2002F0C7FA002070
:1054700002F0C4FA4B2002F0C1FA002002F0BEFA9A
:105480005D2002F0BBFA002002F0B8FA742002F0AE
:10549000B5FA002002F0B2FA842002F0AFFA002040
:1054A00002F0ACFA932002F0A9FA002002F0A6FA6A
:1054B000A22002F0A3FA002002F0A0FAB32002F02A
:1054C0009DFA002002F09AFABE2002F097FA00201E
:1054D00002F094FAC42002F091FA002002F08EFA51
:1054E000CD2002F08BFA002002F088FAD32002F0DF
:1054F00085FA002002F082FADC2002F07FFA002018
:1055000002F07CFAF32002F079FA002002F076FA39
:10551000E62002F07FFA112002F070FA002002F07B
:105520006DFA342002F06AFA002002F067FA562081
:1055300002F064FA002002F061FA762002F05EFACE
:10554000002002F05BFA772002F058FA002002F007
:1055500055FA662002F052FA002002F04FFA882035
:1055600002F04CFA002002F049FA992002F046FAC3
:10557000002002F043FABB2002F040FA002002F0C3
:105580003DFA992002F03AFA002002F037FA66203C
:1055900002F034FA002002F031FA552002F02EFA1F
:1055A000002002F02BFA552002F028FA002002F029
:1055B00025FA452002F022FA002002F01FFA4320CB
:1055C00002F01CFA002002F019FA442002F016FA48
:1055D000002002F013FAE72002F01CFA322002F059
:1055E0000DFA002002F00AFA552002F007FA002016
:1055F00002F004FA762002F001FA002002F0FEF92F
:10560000662002F0FBF9002002F0F8F9672002F0B2
:10561000F5F9002002F0F2F9672002F0EFF900201E
:1056200002F0ECF9872002F0E9F9002002F0E6F937
:10563000992002F0E3F9002002F0E0F9BB2002F02B
:10564000DDF9002002F0DAF9992002F0D7F9002004
:1056500002F0D4F9772002F0D1F9002002F0CEF95F
:10566000442002F0CBF9002002F0C8F9562002F0E5
:10567000C5F9002002F0C2F9232002F0BFF9002092
:1056800002F0BCF9332002F0B9F9002002F0B6F9BB
:10569000452002F0B3F9002002F0B0F9E82002F052
:1056A000B9F9002002F0AAF9002002F0A7F9992028
:1056B00002F0A4F9002002F0A1F9872002F09EF97F
:1056C000002002F09BF9882002F098F9002002F0F7
:1056D00095F9772002F092F9002002F08FF9662008
:1056E00002F08CF9002002F089F9882002F086F996
:1056F000002002F083F9AA2002F080F9002002F0D5
:105700007DF9BB2002F07AF9002002F077F99920A8
:1057100002F074F9002002F071F9662002F06EF9CF
:10572000002002F06BF9552002F068F9002002F029
:1057300065F9552002F062F9002002F05FF944207B
:1057400002F05CF9002002F059F9442002F056F909
:10575000002002F053F9552002F050F9002002F029
:105760004DF9E92002F056F9AA2002F047F900208D
:1057700002F044F9002002F041F9002002F03EF965
:10578000002002F047F9AA2002F038F9CF2002F0F9
:1057900041F9002002F032F9002002F02FF9002038
:1057A00002F02CF9002002F029F9002002F026F97D
:1057B000002002F023F9002002F020F9002002F07E
:1057C0001DF9002002F01AF9002002F017F900205C
:1057D00002F014F9002002F011F9002002F00EF995
:1057E000002002F00BF9002002F008F9002002F07E
:1057F00005F9002002F002F9F02002F00BF9002078
:1058000002F0FCF8502002F0F9F8002002F0F6F85F
:10581000002002F0F3F8002002F0F0F8F32002F08C
:10582000F9F8002002F0EAF8F92002F0F3F8062077
:1058300002F0E4F8102002F0E1F8292002F0DEF88E
:10584000002002F0DBF83A2002F0E4F8552002F0E4
:10585000D5F8112002F0DEF86420FEF7ADF929201A
:1058600002F0D8F8352002F0D5F8002002F0C6F892
:10587000512002F0CFF8FF2002F0C0F8532002F0D0
:10588000C9F82C2002F0BAF8552002F0C3F88220A3
:1058900002F0B4F82C2002F0BDF810BD10B555216F
:1058A0004FF4704002F0CCF8AA214FF2010002F050
:1058B000C7F852214FF2020002F0C2F808214FF25D
:1058C000030002F0BDF801214FF2040002F0B8F825
:1058D00034214FF4364002F0B3F834214BF201602A
:1058E00002F0AEF834214BF2026002F0A9F80D216B
:1058F0004FF4304002F0A4F80D214BF2010002F009
:105900009FF80D214BF2020002F09AF824214FF487
:10591000374002F095F824214BF2017002F090F824
:1059200024214BF2027002F08BF80D214FF431402C
:1059300002F086F80D214BF2011002F081F80D21E2
:105940004BF2021002F07CF824214FF4384002F0B0
:1059500077F824214BF6010002F072F824214BF66F
:10596000020002F06DF800214FF4324002F068F8B6
:1059700024214FF4394002F063F824214BF6011042
:1059800002F05EF824214BF6021002F059F80521CE
:105990004FF4334002F054F805214BF2013002F08D
:1059A0004FF805214BF2023002F04AF834214FF44F
:1059B0003A4002F045F834214BF6012002F040F85D
:1059C00034214BF6022002F03BF80B214FF4354016
:1059D00002F036F80B214BF2015002F031F80B21A6
:1059E0004BF2025002F02CF800214FF43C4002F040
:1059F00027F8A3214BF6014002F022F800214BF6D4
:105A0000024002F01DF800214FF43D4002F018F86A
:105A1000A3214BF6015002F013F800214BF602507F
:105A200002F00EF800214FF43E4002F009F8372151
:105A30004BF6016002F004F800214FF4514001F0F0
:105A4000FFFF37214DF2011001F0FAFF00214DF266
:105A5000021001F0F5FF53214DF2031001F0F0FFA9
:105A600000214DF2041001F0EBFF79214DF20510F9
:105A700001F0E6FF00214DF2061001F0E1FF972151
:105A80004DF2071001F0DCFF00214DF2081001F08B
:105A9000D7FFB1214DF2091001F0D2FF00214DF2E4
:105AA0000A1001F0CDFFD5214DF20B1001F0C8FF17
:105AB00000214DF20C1001F0C3FFF4214DF20D1046
:105AC00001F0BEFF01214DF20E1001F0B9FF2321BC
:105AD0004DF20F1001F0B4FF01214DF2101001F052
